:020000040800F2
:1000000000500020192D0008E5290008ED290008FE
:10001000F5290008FD290008052A00080000000055
:100020000000000000000000000000000D2A000891
:10003000192A000800000000252A0008312A0008BB
:10004000612D0008612D0008612D0008612D000858
:10005000612D0008612D0008612D0008612D000848
:10006000612D0008612D0008612D0008612D000838
:10007000612D0008612D0008612D0008612D000828
:10008000612D0008612D0008612D0008612D000818
:10009000612D0008612D0008612D0008612D000808
:1000A000612D0008612D0008612D0008612D0008F8
:1000B000612D0008612D0008612D0008612D0008E8
:1000C000612D0008612D0008612D0008612D0008D8
:1000D000612D00083D2A0008612D0008512A000802
:1000E000612D0008612D0008612D0008000000004E
:1000F0000000000000000000000000000000000000
:0C01000000000000000000005FF808F1A3
:10010C00034613F8012B002AFBD1181A013870474B
:10011C0010B5054C237833B9044B13B10448AFF335
:10012C0000800123237010BD680000200000000037
:10013C007045000808B5034B1BB103490348AFF3E6
:10014C00008008BD000000006C0000207045000815
:10015C0080B400AF00BFBD4680BC704780B500AF17
:10016C00084B1B68074A43F010031360032001F08F
:10017C0039F80F2000F008F802F06EFC0023184646
:10018C0080BD00BF0020024080B582B000AF786017
:10019C00124B1A68124B1B7819464FF47A73B3FB47
:1001AC00F1F3B2FBF3F3184601F051F80346002BC0
:1001BC0001D001230EE07B680F2B0AD8002279684E
:1001CC004FF0FF3001F019F8064A7B6813600023EA
:1001DC0000E0012318460837BD4680BD0000002012
:1001EC00080000200400002080B400AF054B1B78F1
:1001FC001A46054B1B681344034A136000BFBD46E7
:10020C0080BC7047080000208400002080B400AF40
:10021C00024B1B681846BD4680BC7047840000200A
:10022C0080B586B000AF78607B68002B01D10123CC
:10023C0072E27B681B6803F00103002B00F08780DF
:10024C00924B5B6803F00C03042B0CD08F4B5B6858
:10025C0003F00C03082B12D18C4B5B6803F4803336
:10026C00B3F5803F0BD1894B1B6803F40033002B93
:10027C006CD07B685B68002B68D101234CE27B68F7
:10028C005B68B3F5803F06D1804B1B687F4A43F413
:10029C00803313602EE07B685B68002B0CD17B4BAA
:1002AC001B687A4A23F480331360784B1B68774AB7
:1002BC0023F4802313601DE07B685B68B3F5A02FEB
:1002CC000CD1724B1B68714A43F4802313606F4B43
:1002DC001B686E4A43F4803313600BE06B4B1B6856
:1002EC006A4A23F480331360684B1B68674A23F413
:1002FC00802313607B685B68002B13D0FFF786FFAD
:10030C00386108E0FFF782FF02463B69D31A642B81
:10031C0001D9032300E25D4B1B6803F40033002B6F
:10032C00F0D014E0FFF772FF386108E0FFF76EFFC2
:10033C0002463B69D31A642B01D90323ECE1534BDE
:10034C001B6803F40033002BF0D100E000BF7B6886
:10035C001B6803F00203002B63D04C4B5B6803F06B
:10036C000C03002B0BD0494B5B6803F00C03082BE0
:10037C001CD1464B5B6803F48033002B16D1434BE6
:10038C001B6803F00203002B05D07B681B69012B53
:10039C0001D00123C0E13D4B1B6823F0F8027B68C0
:1003AC005B69DB00394913430B603AE07B681B69DE
:1003BC00002B20D0364B01221A60FFF727FF386143
:1003CC0008E0FFF723FF02463B69D31A022B01D941
:1003DC000323A1E12D4B1B6803F00203002BF0D08B
:1003EC002A4B1B6823F0F8027B685B69DB0027490A
:1003FC0013430B6015E0264B00221A60FFF706FF33
:10040C00386108E0FFF702FF02463B69D31A022B62
:10041C0001D9032380E11D4B1B6803F00203002B61
:10042C00F0D17B681B6803F00803002B3AD07B6883
:10043C009B69002B19D0174B01221A60FFF7E6FEBF
:10044C00386108E0FFF7E2FE02463B69D31A022B43
:10045C0001D9032360E10D4B5B6A03F00203002B0F
:10046C00F0D0012000F0CEFA1CE00A4B00221A60FA
:10047C00FFF7CCFE38610FE0FFF7C8FE02463B6980
:10048C00D31A022B08D9032346E100BF0010024007
:10049C000000424280044242924B5B6A03F002032A
:1004AC00002BE9D17B681B6803F00403002B00F0E0
:1004BC00A6800023FB758B4BDB6903F08053002B6C
:1004CC000DD1884BDB69874A43F08053D361854B50
:1004DC00DB6903F08053BB60BB680123FB75824B67
:1004EC001B6803F48073002B18D17F4B1B687E4A6A
:1004FC0043F480731360FFF789FE386108E0FFF75F
:10050C0085FE02463B69D31A642B01D9032303E110
:10051C00754B1B6803F48073002BF0D07B68DB6891
:10052C00012B06D16F4B1B6A6E4A43F00103136219
:10053C002DE07B68DB68002B0CD16A4B1B6A694A87
:10054C0023F001031362674B1B6A664A23F0040312
:10055C0013621CE07B68DB68052B0CD1614B1B6ABA
:10056C00604A43F0040313625E4B1B6A5D4A43F01E
:10057C00010313620BE05B4B1B6A5A4A23F0010325
:10058C001362584B1B6A574A23F0040313627B68AF
:10059C00DB68002B15D0FFF739FE38610AE0FFF756
:1005AC0035FE02463B69D31A41F28832934201D997
:1005BC000323B1E04B4B1B6A03F00203002BEED07C
:1005CC0014E0FFF723FE38610AE0FFF71FFE024636
:1005DC003B69D31A41F28832934201D903239BE041
:1005EC00404B1B6A03F00203002BEED1FB7D012B69
:1005FC0005D13C4BDB693B4A23F08053D3617B68CC
:10060C00DB69002B00F08780364B5B6803F00C0332
:10061C00082B61D07B68DB69022B46D1334B00225F
:10062C001A60FFF7F3FD386108E0FFF7EFFD0246B3
:10063C003B69D31A022B01D903236DE0294B1B68AC
:10064C0003F00073002BF0D17B681B6AB3F5803F7D
:10065C0008D1244B5B6823F400327B689B682149EA
:10066C0013434B601F4B5B6823F474127B68196A4D
:10067C007B685B6A0B431B4913434B601B4B01228A
:10068C001A60FFF7C3FD386108E0FFF7BFFD0246B3
:10069C003B69D31A022B01D903233DE0114B1B6894
:1006AC0003F00073002BF0D035E0104B00221A60E1
:1006BC00FFF7ACFD386108E0FFF7A8FD02463B6987
:1006CC00D31A022B01D9032326E0064B1B6803F037
:1006DC000073002BF0D11EE07B68DB69012B07D186
:1006EC00012319E0001002400070004060004242FB
:1006FC000B4B5B68FB60FB6803F480327B681B6A06
:10070C009A4206D1FB6803F470127B685B6A9A42CA
:10071C0001D0012300E0002318461837BD4680BDE8
:10072C000010024080B584B000AF786039607B68FF
:10073C00002B01D10123D0E06A4B1B6803F00703A7
:10074C003A689A4210D9674B1B6823F00702654937
:10075C003B6813430B60634B1B6803F007033A6859
:10076C009A4201D00123B8E07B681B6803F00203B6
:10077C00002B20D07B681B6803F00403002B05D0F2
:10078C00594B5B68584A43F4E06353607B681B68C1
:10079C0003F00803002B05D0534B5B68524A43F41B
:1007AC0060535360504B5B6823F0F0027B689B688E
:1007BC004D4913434B607B681B6803F00103002B0E
:1007CC0040D07B685B68012B07D1474B1B6803F457
:1007DC000033002B15D101237FE07B685B68022B73
:1007EC0007D1414B1B6803F00073002B09D1012387
:1007FC0073E03D4B1B6803F00203002B01D1012376
:10080C006BE0394B5B6823F003027B685B6836490D
:10081C0013434B60FFF7FAFCF8600AE0FFF7F6FCB5
:10082C000246FB68D31A41F28832934201D9032362
:10083C0053E02D4B5B6803F00C027B685B689B00FC
:10084C009A42EBD1274B1B6803F007033A689A4294
:10085C0010D2244B1B6823F0070222493B68134338
:10086C000B60204B1B6803F007033A689A4201D0D7
:10087C00012332E07B681B6803F00403002B08D0D3
:10088C00194B5B6823F4E0627B68DB681649134301
:10089C004B607B681B6803F00803002B09D0124BDC
:1008AC005B6823F460527B681B69DB000E491343C1
:1008BC004B6000F021F802460B4B5B681B0903F000
:1008CC000F030A49CB5C22FA03F3094A1360094B64
:1008DC001B681846FFF758FC002318461037BD4616
:1008EC0080BD00BF00200240001002408449000877
:1008FC00000000200400002080B487B000AF00236B
:10090C00FB600023BB6000237B6100237B60002322
:10091C003B611E4B5B68FB60FB6803F00C03042B14
:10092C0002D0082B03D027E0194B3B6127E0FB6872
:10093C009B0C03F00F03174AD35C7B60FB6803F43A
:10094C008033002B10D0114B5B685B0C03F0010360
:10095C00114AD35CBB607B680D4A03FB02F2BB6897
:10096C00B2FBF3F37B6104E07B680C4A02FB03F3FC
:10097C007B617B693B6102E0054B3B6100BF3B69DE
:10098C0018461C37BD4680BC704700BF00100240A3
:10099C0000127A009C490008AC49000800093D008F
:1009AC0080B400AF024B1B681846BD4680BC704734
:1009BC000000002080B500AFFFF7F2FF0246054BA8
:1009CC005B681B0A03F007030349CB5C22FA03F3B1
:1009DC00184680BD001002409449000880B500AF55
:1009EC00FFF7DEFF0246054B5B68DB0A03F00703EB
:1009FC000349CB5C22FA03F3184680BD0010024079
:100A0C009449000880B485B000AF78600A4B1B682D
:100A1C000A4AA2FB03235B0A7A6802FB03F3FB601E
:100A2C0000BFFB685A1EFA60002BF9D100BF00BF53
:100A3C001437BD4680BC704700000020D34D6210B7
:100A4C0080B586B000AF786000233B610023FB606B
:100A5C007B681B6803F00103002B7DD00023FB7522
:100A6C004F4BDB6903F08053002B0DD14C4BDB69F2
:100A7C004B4A43F08053D361494BDB6903F08053FD
:100A8C00BB60BB680123FB75464B1B6803F480738A
:100A9C00002B18D1434B1B68424A43F480731360FC
:100AAC00FFF7B4FB386108E0FFF7B0FB02463B6987
:100ABC00D31A642B01D903236DE03A4B1B6803F462
:100ACC008073002BF0D0364B1B6A03F44073FB6031
:100ADC00FB68002B2ED07B685B6803F44073FA68CC
:100AEC009A4227D02E4B1B6A23F44073FB602E4B8B
:100AFC0001221A602C4B00221A60294AFB681362EF
:100B0C00FB6803F00103002B14D0FFF77FFB386167
:100B1C000AE0FFF77BFB02463B69D31A41F28832AD
:100B2C00934201D9032336E01D4B1B6A03F00203E9
:100B3C00002BEED01A4B1B6A23F440727B685B6867
:100B4C00174913430B62FB7D012B05D1144BDB6959
:100B5C00134A23F08053D3617B681B6803F00203B4
:100B6C00002B08D00E4B5B6823F440427B689B68DB
:100B7C000B4913434B607B681B6803F01003002B7D
:100B8C0008D0074B5B6823F480027B68DB68044960
:100B9C0013434B60002318461837BD4680BD00BF79
:100BAC0000100240007000404004424280B48BB000
:100BBC0000AF7860396000237B6200233B6269E1FF
:100BCC0001227B6A02FA03F3FB613B681B68FA693A
:100BDC001340BB61BA69FB699A4240F058813B688B
:100BEC005B689A4A93425ED0984A934275D8984A69
:100BFC00934258D0964A93426FD8964A934252D019
:100C0C00944A934269D8944A93424CD0924A934264
:100C1C0063D8924A934246D0904A93425DD8122BA5
:100C2C002AD8122B59D801A252F823F0B30C000881
:100C3C008D0C00089F0C0008E10C0008E70C000864
:100C4C00E70C0008E70C0008E70C0008E70C0008AC
:100C5C00E70C0008E70C0008E70C0008E70C00089C
:100C6C00E70C0008E70C0008E70C0008E70C00088C
:100C7C00950C0008A90C0008794A934213D02CE07B
:100C8C003B68DB683B6229E03B68DB6804333B6212
:100C9C0024E03B68DB6808333B621FE03B68DB68A1
:100CAC000C333B621AE03B689B68002B02D1042397
:100CBC003B6213E03B689B68012B05D108233B6228
:100CCC007B68FA691A6109E008233B627B68FA6960
:100CDC005A6103E000233B6200E000BFBB69FF2BBD
:100CEC0001D87B6801E07B6804337B61BB69FF2B17
:100CFC0002D87B6A9B0002E07B6A083B9B003B614D
:100D0C007B691A680F213B6901FA03F3DB431A4034
:100D1C00396A3B6901FA03F31A437B691A603B6831
:100D2C005B6803F08053002B00F0B1804D4B9B6946
:100D3C004C4A43F0010393614A4B9B6903F0010356
:100D4C00BB60BB68484A7B6A9B08023352F823306D
:100D5C00FB607B6A03F003039B000F2202FA03F390
:100D6C00DB43FA681340FB607B68404A934213D024
:100D7C007B683F4A93420DD07B683E4A934207D032
:100D8C007B683D4A934201D1032306E0042304E02F
:100D9C00022302E0012300E000237A6A02F003023E
:100DAC0092009340FA681343FB602F497B6A9B08BF
:100DBC000233FA6841F823203B685B6803F4801324
:100DCC00002B06D02D4B9A682C49BB6913438B60C2
:100DDC0006E02A4B9A68BB69DB43284913408B60B9
:100DEC003B685B6803F40013002B06D0234BDA68D6
:100DFC002249BB691343CB6006E0204BDA68BB6920
:100E0C00DB431E491340CB603B685B6803F4003343
:100E1C00002B06D0194B5A681849BB6913434B6019
:100E2C0006E0164B5A68BB69DB43144913404B6010
:100E3C003B685B6803F48033002B21D00F4B1A689E
:100E4C000E49BB6913430B6021E000BF0000321058
:100E5C0000003110000022100000211000001210C0
:100E6C000000111000100240000001400008014079
:100E7C00000C01400010014000140140000401402E
:100E8C000B4B1A68BB69DB43094913400B607B6A47
:100E9C0001337B623B681A687B6A22FA03F3002BEE
:100EAC007FF48EAE00BF00BF2C37BD4680BC7047B0
:100EBC000004014080B483B000AF78600B467B80A7
:100ECC0013467B707B78002B03D07A887B681A6181
:100EDC0003E07B881A047B681A6100BF0C37BD469F
:100EEC0080BC704780B485B000AF78600023FB7382
:100EFC007B6893F82130DBB2022B08D07B6804228C
:100F0C009A637B68002283F82020012320E07B6811
:100F1C001B681A687B681B6822F00E021A607B68DB
:100F2C001B681A687B681B6822F001021A607B68D8
:100F3C001A6C7B68DB6B012101FA02F25A607B6848
:100F4C00012283F821207B68002283F82020FB7B80
:100F5C0018461437BD4680BC7047000080B584B07D
:100F6C0000AF78600023FB737B6893F82130DBB211
:100F7C00022B05D07B6804229A630123FB7351E09A
:100F8C007B681B681A687B681B6822F00E021A606B
:100F9C007B681B681A687B681B6822F001021A6068
:100FAC007B681B68224A934229D07B681B68214AC4
:100FBC00934222D07B681B681F4A93421AD07B68ED
:100FCC001B681E4A934212D07B681B681C4A9342D2
:100FDC000AD07B681B681B4A934202D14FF48013E2
:100FEC000EE04FF080730BE04FF4803308E04FF4C9
:100FFC00805305E04FF4807302E0102300E00123DE
:10100C00114A53607B68012283F821207B680022FF
:10101C0083F820207B685B6B002B03D07B685B6BB9
:10102C0078689847FB7B18461037BD4680BD00BFDB
:10103C00080002401C000240300002404400024004
:10104C00580002406C0002400000024080B485B0A1
:10105C0000AF78607B6803F00703FB600C4BDB6828
:10106C00BB60BA684FF6FF031340BB60FB681A0203
:10107C00BB68134343F0BF6343F40033BB60044AC3
:10108C00BB68D36000BF1437BD4680BC704700BF3F
:10109C0000ED00E080B400AF044BDB681B0A03F0EA
:1010AC0007031846BD4680BC704700BF00ED00E04A
:1010BC0080B483B000AF0346FB7197F90730002B67
:1010CC000BDBFB7903F01F02064997F907305B092C
:1010DC00012000FA02F241F8232000BF0C37BD4674
:1010EC0080BC704700E100E080B483B000AF0346E1
:1010FC003960FB7197F90730002B0ADB3B68DAB2D9
:10110C000C4997F907301201D2B20B4483F8002333
:10111C000AE03B68DAB20849FB7903F00F03043BA1
:10112C001201D2B20B441A7600BF0C37BD4680BCFC
:10113C00704700BF00E100E000ED00E080B489B032
:10114C0000AFF860B9607A60FB6803F00703FB61DD
:10115C00FB69C3F10703042B28BF0423BB61FB69A4
:10116C000433062B02D9FB69033B00E000237B61AF
:10117C004FF0FF32BB6902FA03F3DA43BB681A4043
:10118C007B699A404FF0FF317B6901FA03F3D94335
:10119C007B680B40134318462437BD4680BC704710
:1011AC0080B582B000AF78607B68013BB3F1807F83
:1011BC0001D301230FE00A4A7B68013B53600F21E6
:1011CC004FF0FF30FFF790FF054B00229A60044B65
:1011DC0007221A60002318460837BD4680BD00BFA1
:1011EC0010E000E080B582B000AF78607868FFF75F
:1011FC002DFF00BF0837BD4680BD80B586B000AF5F
:10120C000346B9607A60FB7300237B61FFF742FFF2
:10121C0078617A68B9687869FFF790FF024697F9A8
:10122C000F3011461846FFF75FFF00BF1837BD4659
:10123C0080BD80B582B000AF0346FB7197F90730D3
:10124C001846FFF735FF00BF0837BD4680BD80B597
:10125C0082B000AF78607868FFF7A2FF03461846AB
:10126C000837BD4680BD0000F0B587B000AFF86010
:10127C00B960C7E900230123FB750023BB7500236C
:10128C007B752F4B1B7E012B01D1022354E02C4B81
:10129C0001221A764CF2503000F0A8F80346FB7588
:1012AC00FB7D002B44D1FB68012B02D101237B7504
:1012BC0007E0FB68022B02D102237B7501E00423BB
:1012CC007B750023BB752DE0BB7D5A00BB6802EB20
:1012DC00030CBB7D1901D7E90023C1F12006A1F154
:1012EC00200022FA01F403FA06F6344323FA00F044
:1012FC00044323FA01F5A3B21946604600F05AF8EC
:10130C004CF2503000F072F80346FB750D4B1B6924
:10131C000C4A23F001031361FB7D002B07D1BB7D2D
:10132C000133BB75BA7D7B7D9A42CDD300E000BF03
:10133C00034B00221A76FB7D18461C37BD46F0BDC8
:10134C00880000200020024080B483B000AF00234E
:10135C00FB710D4B1B6903F08003002B0DD00A4B66
:10136C000A4A5A60084B0A4A5A60074B1B6903F039
:10137C008003002B01D00123FB71FB7918460C373D
:10138C00BD4680BC704700BF00200240230167456A
:10139C00AB89EFCD80B400AF054B1B69044A43F019
:1013AC008003136100231846BD4680BC704700BF04
:1013BC000020024080B483B000AF78600B467B8085
:1013CC00084B0022DA61084B1B69074A43F0010302
:1013DC0013617B687A881A8000BF0C37BD4680BCCD
:1013EC00704700BF880000200020024080B584B008
:1013FC0000AF7860FEF70AFFF86010E07B68B3F18D
:10140C00FF3F0CD07B68002B07D0FEF7FFFE024697
:10141C00FB68D31A7A689A4201D2032325E0154B54
:10142C00DB6803F00103002BE8D1124BDB6803F0FF
:10143C002003002B02D00F4B2022DA600D4BDB680F
:10144C0003F01003002B0BD10A4BDB6903F00103F3
:10145C00002B05D1074BDB6803F00403002B03D0F2
:10146C0000F00AF8012300E0002318461037BD46AF
:10147C0080BD00BF0020024080B483B000AF0023C9
:10148C007B60234BDB6803F01003002B09D0214B4E
:10149C00DB6943F002031F4AD3617B6843F01003FE
:1014AC007B601B4BDB6803F00403002B09D0194B4A
:1014BC00DB6943F00103174AD3617B6843F00403F3
:1014CC007B60134BDB6903F00103002B0BD0114B3A
:1014DC00DB6943F004030F4AD3610D4BDB690C4A03
:1014EC0023F00103D3617B6840F20112934206D1D1
:1014FC00074BDB69064A23F00103D36102E0044A7F
:10150C007B68D36000BF0C37BD4680BC704700BF02
:10151C00002002408800002080B584B000AF7860C5
:10152C0039600123FB730023BB602F4B1B7E012B07
:10153C0001D1022353E02C4B01221A767B681B68E5
:10154C00022B16D14CF25030FFF750FF0346002B04
:10155C0041D1012000F04CF84CF25030FFF746FF1F
:10156C000346FB73214B1B69204A23F004031361D0
:10157C0031E04CF25030FFF739FF0346002B2AD1F3
:10158C003B684FF0FF321A607B689B68BB6019E0C8
:10159C00B86800F049F84CF25030FFF727FF0346CB
:1015AC00FB73124B1B69114A23F002031361FB7B83
:1015BC00002B03D03B68BA681A600CE0BB6803F5DB
:1015CC008063BB607B68DB689A027B689B68134412
:1015DC00BA689A42DCD3044B00221A76FB7B18467D
:1015EC001037BD4680BD00BF88000020002002409F
:1015FC0080B483B000AF7860094B0022DA61094BEC
:10160C001B69084A43F004031361064B1B69054A26
:10161C0043F04003136100BF0C37BD4680BC7047DC
:10162C00880000200020024080B483B000AF7860B6
:10163C000B4B0022DA610B4B1B690A4A43F0020385
:10164C001361084A7B685361064B1B69054A43F0DA
:10165C004003136100BF0C37BD4680BC704700BF10
:10166C00880000200020024080B582B000AF786076
:10167C007B68002B01D1012342E07B6893F8413059
:10168C00DBB2002B06D17B68002283F840207868FF
:10169C0001F014FA7B68242283F841207B681B68D4
:1016AC00DA687B681B6822F40052DA60786800F014
:1016BC00B7FD7B681B681A697B681B6822F4904233
:1016CC001A617B681B685A697B681B6822F02A02C6
:1016DC005A617B681B68DA687B681B6842F40052AD
:1016EC00DA607B6800225A647B68202283F84120F0
:1016FC007B68202283F842207B6800225A630023F7
:10170C0018460837BD4680BD80B58AB002AFF86078
:10171C00B9603B601346FB8000237B61FB6893F848
:10172C004130DBB2202B75D1BB68002B02D0FB887B
:10173C00002B01D101236EE0FB6800225A64FB6888
:10174C00212283F84120FEF761FD7861FB68FA885D
:10175C009A84FB68FA88DA84FB689B68B3F5805F2F
:10176C0008D1FB681B69002B04D10023FB61BB680B
:10177C00BB6103E0BB68FB610023BB612EE03B68EF
:10178C0000937B6900228021F86800F01CFB034663
:10179C00002B05D0FB68202283F8412003233AE07C
:1017AC00FB69002B0BD1BB691B881A46FB681B68B5
:1017BC00C2F308025A60BB690233BB6107E0FB69E4
:1017CC001A78FB681B685A60FB690133FB61FB6884
:1017DC00DB8C9BB2013B9AB2FB68DA84FB68DB8C36
:1017EC009BB2002BCBD13B6800937B69002240213C
:1017FC00F86800F0E8FA0346002B05D0FB682022BD
:10180C0083F84120032306E0FB68202283F8412063
:10181C00002300E0022318462037BD4680BD80B56A
:10182C0084B000AFF860B9601346FB80FB6893F896
:10183C004230DBB2202B12D1BB68002B02D0FB88CC
:10184C00002B01D101230BE0FB6800221A63FB88FB
:10185C001A46B968F86800F00FFB034600E0022353
:10186C0018461037BD4680BD80B5BAB000AF786061
:10187C007B681B681B68C7F8E4307B681B68DB68F7
:10188C00C7F8E0307B681B685B69C7F8DC30002365
:10189C00C7F8D8300023C7F8D430D7F8E43003F0B9
:1018AC000F03C7F8D830D7F8D830002B0FD1D7F8A2
:1018BC00E43003F02003002B09D0D7F8E03003F01C
:1018CC002003002B03D0786800F0ECFB5BE2D7F828
:1018DC00D830002B00F0DE80D7F8DC3003F00103A9
:1018EC00002B06D1D7F8E03003F49073002B00F0F6
:1018FC00D180D7F8E43003F00103002B0BD0D7F8DC
:10190C00E03003F48073002B05D07B685B6C43F0F4
:10191C0001027B685A64D7F8E43003F00403002B0F
:10192C000BD0D7F8DC3003F00103002B05D07B681B
:10193C005B6C43F002027B685A64D7F8E43003F026
:10194C000203002B0BD0D7F8DC3003F00103002B83
:10195C0005D07B685B6C43F004027B685A64D7F853
:10196C00E43003F00803002B11D0D7F8E03003F07B
:10197C002003002B05D1D7F8DC3003F00103002B3A
:10198C0005D07B685B6C43F008027B685A647B680B
:10199C005B6C002B00F0F281D7F8E43003F02003ED
:1019AC00002B08D0D7F8E03003F02003002B02D036
:1019BC00786800F077FB7B681B685B6903F0400379
:1019CC00002B14BF01230023DBB2C7F8D4307B6893
:1019DC005B6C03F00803002B03D1D7F8D430002B39
:1019EC004FD0786800F081FA7B681B685B6903F064
:1019FC004003002B41D07B681B681433C7F89C3024
:101A0C00D7F89C3053E8003FC7F89830D7F8983097
:101A1C0023F04003C7F8D0307B681B681433D7F829
:101A2C00D020C7F8A820C7F8A430D7F8A410D7F84E
:101A3C00A82041E80023C7F8A030D7F8A030002B2D
:101A4C00D9D17B68DB6B002B13D07B68DB6B7E4AB8
:101A5C005A637B68DB6B1846FFF780FA0346002B52
:101A6C0016D07B68DB6B5B6B7A68D26B1046984741
:101A7C000EE0786800F093F90AE0786800F08FF9CE
:101A8C0006E0786800F08BF97B6800225A6475E1F7
:101A9C0000BF73E17B681B6B012B40F04F81D7F8C3
:101AAC00E43003F01003002B00F04881D7F8E0304D
:101ABC0003F01003002B00F041810023BB607B6816
:101ACC001B681B68BB607B681B685B68BB60BB6882
:101ADC007B681B685B6903F04003002B00F0B68049
:101AEC007B68DB6B1B685B68A7F8BE30B7F8BE3051
:101AFC00002B00F045817B689B8DB7F8BE209A4285
:101B0C0080F03E817B68B7F8BE20DA857B68DB6BA2
:101B1C009B69202B00F088807B681B680C33C7F80E
:101B2C008830D7F8883053E8003FC7F88430D7F8AE
:101B3C00843023F48073C7F8B8307B681B680C338F
:101B4C00D7F8B820C7F89420C7F89030D7F8901081
:101B5C00D7F8942041E80023C7F88C30D7F88C30A4
:101B6C00002BD9D17B681B6814337B677B6F53E8E0
:101B7C00003F3B673B6F23F00103C7F8B4307B6831
:101B8C001B681433D7F8B420C7F88020FB67F96FB3
:101B9C00D7F8802041E80023BB67BB6F002BE1D155
:101BAC007B681B6814333B663B6E53E8003FFB6558
:101BBC00FB6D23F04003C7F8B0307B681B6814330F
:101BCC00D7F8B020FA66BB66B96EFA6E41E800230E
:101BDC007B667B6E002BE3D17B68202283F842204E
:101BEC007B6800221A637B681B680C33FB64FB6CFC
:101BFC0053E8003FBB64BB6C23F01003C7F8AC3058
:101C0C007B681B680C33D7F8AC20BA657B65796DA3
:101C1C00BA6D41E800233B653B6D002BE3D17B683B
:101C2C00DB6B1846FFF75EF97B6802225A637B6810
:101C3C009A8D7B68DB8D9BB2D31A9BB21946786860
:101C4C0000F0B6F89CE000BFBB1F00087B689A8DC3
:101C5C007B68DB8D9BB2D31AA7F8CE307B68DB8D0B
:101C6C009BB2002B00F08E80B7F8CE30002B00F02A
:101C7C0089807B681B680C33BB63BB6B53E8003FEC
:101C8C007B637B6B23F49073C7F8C8307B681B684D
:101C9C000C33D7F8C8207A643B64396C7A6C41E811
:101CAC000023FB63FB6B002BE3D17B681B681433B5
:101CBC007B627B6A53E8003F3B623B6A23F0010383
:101CCC00C7F8C4307B681B681433D7F8C4203A6358
:101CDC00FB62F96A3A6B41E80023BB62BB6A002BDA
:101CEC00E3D17B68202283F842207B6800221A63B0
:101CFC007B681B680C333B613B6953E8003FFB601E
:101D0C00FB6823F01003C7F8C0307B681B680C33EA
:101D1C00D7F8C020FA61BB61B969FA6941E80023C0
:101D2C007B617B69002BE3D17B6802225A63B7F895
:101D3C00CE301946786800F03BF823E0D7F8E43051
:101D4C0003F08003002B09D0D7F8E03003F08003B8
:101D5C00002B03D0786800F03EF914E0D7F8E4309B
:101D6C0003F04003002B0ED0D7F8E03003F0400313
:101D7C00002B08D0786800F07DF904E000BF02E089
:101D8C0000BF00E000BFE837BD4680BD80B483B023
:101D9C0000AF786000BF0C37BD4680BC704780B484
:101DAC0083B000AF786000BF0C37BD4680BC704775
:101DBC0080B483B000AF78600B467B8000BF0C37DB
:101DCC00BD4680BC704780B586B000AFF860B96086
:101DDC003B601346FB713BE03B6AB3F1FF3F37D0EE
:101DEC00FEF714FA02463B68D31A3A6A9A4202D3B7
:101DFC003B6A002B01D103233AE0FB681B68DB68CC
:101E0C0003F00403002B23D0BB68802B20D0BB68CD
:101E1C00402B1DD0FB681B681B6803F00803082BC4
:101E2C0016D100237B61FB681B681B687B61FB6818
:101E3C001B685B687B617B69F86800F056F8FB688F
:101E4C0008225A64FB68002283F8402001230FE02B
:101E5C00FB681B681A68BB681340BA689A420CBFCF
:101E6C0001230023DBB21A46FB799A42B4D000233B
:101E7C0018461837BD4680BD80B485B000AFF860F9
:101E8C00B9601346FB80FB68BA689A62FB68FA88F3
:101E9C009A85FB68FA88DA85FB6800225A64FB682D
:101EAC00222283F84220FB681B69002B07D0FB68B9
:101EBC001B68DA68FB681B6842F48072DA60FB68A6
:101ECC001B685A69FB681B6842F001025A61FB6887
:101EDC001B68DA68FB681B6842F02002DA6000239A
:101EEC0018461437BD4680BC704780B495B000AF1F
:101EFC0078607B681B680C337B637B6B53E8003F1B
:101F0C003B633B6B23F49073FB647B681B680C3363
:101F1C00FA6C3A64FB63F96B3A6C41E80023BB63DF
:101F2C00BB6B002BE5D17B681B6814333B623B6AAF
:101F3C0053E8003FFB61FB6923F00103BB647B6842
:101F4C001B681433BA6CFA62BB62B96AFA6A41E86C
:101F5C0000237B627B6A002BE5D17B681B6B012B1A
:101F6C0019D17B681B680C33FB60FB6853E8003F9E
:101F7C00BB60BB6823F010037B647B681B680C336D
:101F8C007A6CBA617B617969BA6941E800233B617B
:101F9C003B69002BE5D17B68202283F842207B68CB
:101FAC0000221A6300BF5437BD4680BC704780B511
:101FBC0084B000AF78607B685B6AFB60FB680022D2
:101FCC00DA85FB680022DA84F868FFF7E8FE00BFC8
:101FDC001037BD4680BD80B485B000AF78607B689B
:101FEC0093F84130DBB2212B3ED17B689B68B3F573
:101FFC00805F14D17B681B69002B10D17B681B6A36
:10200C00FB60FB681B881A467B681B68C2F30802DE
:10201C005A607B681B6A9A1C7B681A6208E07B68B2
:10202C001B6A591C7A6811621A787B681B685A60A3
:10203C007B68DB8C9BB2013B9BB27A681946D184DE
:10204C00002B0FD17B681B68DA687B681B6822F059
:10205C008002DA607B681B68DA687B681B6842F078
:10206C004002DA60002300E0022318461437BD4614
:10207C0080BC704780B582B000AF78607B681B680D
:10208C00DA687B681B6822F04002DA607B682022E9
:10209C0083F841207868FFF779FE0023184608374B
:1020AC00BD4680BD80B58CB000AF78607B6893F87E
:1020BC004230DBB2222B40F0AE807B689B68B3F5DC
:1020CC00805F17D17B681B69002B13D10023FB6247
:1020DC007B689B6ABB627B681B685B689BB2C3F3C3
:1020EC0008039AB2BB6A1A807B689B6A9A1C7B684D
:1020FC009A6226E07B689B6AFB620023BB627B686A
:10210C009B68B3F5805F07D07B689B68002B0AD176
:10211C007B681B69002B06D17B681B685B68DAB295
:10212C00FB6A1A7008E07B681B685B68DBB203F023
:10213C007F03DAB2FB6A1A707B689B6A5A1C7B6855
:10214C009A627B68DB8D9BB2013B9BB27A68194625
:10215C00D185002B5DD17B681B68DA687B681B68B6
:10216C0022F02002DA607B681B68DA687B681B68E7
:10217C0022F48072DA607B681B685A697B681B6882
:10218C0022F001025A617B68202283F842207B688E
:10219C0000225A637B681B6B012B35D17B680022B4
:1021AC001A637B681B680C337B617B6953E8003FC7
:1021BC003B613B6923F010037B627B681B680C332B
:1021CC007A6A3A62FB61F9693A6A41E80023BB61B9
:1021DC00BB69002BE5D17B681B681B6803F01003FF
:1021EC00102B0AD10023FB607B681B681B68FB600B
:1021FC007B681B685B68FB60FB687B689B8D194682
:10220C007868FFF7D5FD02E0786800F06FFB0023DB
:10221C0002E0002300E0022318463037BD4680BDA3
:10222C0080B584B000AF78607B681B681B6923F4B1
:10223C0040517B68DA687B681B680A431A617B68CB
:10224C009A687B681B691A437B685B691343BB60A4
:10225C007B681B68DB6823F4B05323F00C037A68AB
:10226C001268B9680B43D3607B681B685B6923F405
:10227C0040717B689A697B681B680A435A617B686A
:10228C001B682C4A934203D1FEF7A8FBF86002E0CE
:10229C00FEF790FBF860FA6813469B0013449A0013
:1022AC001A447B685B689B00B2FBF3F3224AA2FBE7
:1022BC0003235B091901FA6813469B0013449A0027
:1022CC001A447B685B689B00B2FBF3F21A4BA3FBCE
:1022DC0002035B09642000FB03F3D31A1B013233A6
:1022EC00154AA2FB03235B0903F0F0031944FA68B7
:1022FC0013469B0013449A001A447B685B689B004E
:10230C00B2FBF3F20C4BA3FB02035B09642000FB52
:10231C0003F3D31A1B013233074AA2FB03235B09D5
:10232C0003F00F027B681B680A449A6000BF1037E9
:10233C00BD4680BD003801401F85EB5180B59CB077
:10234C0000AFFDF70BFF00F057F900F005FA00F0B5
:10235C00AFF900F0D7F9012287498848FFF75FFAF7
:10236C00012287498748FFF75AFA07F144030022F4
:10237C001A605A609A60DA604FF4E0437B64012380
:10238C00BB640023FB6402233B6507F1440319463D
:10239C007D48FEF70BFC00224FF4E0417A48FEF733
:1023AC0089FD7A4801F06CF800F054FDFDF72EFF22
:1023BC00786630BFFDF72AFF3866386E00F074FD82
:1023CC0017E0734B1B881A46724BD118012301225C
:1023DC006C48FFF799F90346002B12D16C4B1B8804
:1023EC0001335A42DBB2D2B258BF53429AB2684B55
:1023FC001A80674B1A88684B1B889BB29A42E0D1B3
:10240C0000E000BF654B1B78DBB2002B00F0A18015
:10241C00624B00221A706249624800F0C9FF012326
:10242C0087F86F30604B1B78002B0BD05E495C48F3
:10243C0001F042F90346002B14BF01230023DBB249
:10244C0087F86F3097F86F30002B79D0574BBB66FD
:10245C005749534801F030F90346002B06D1554932
:10246C004F4801F029F90346002B0BD001224FF401
:10247C0080514548FEF71EFD4F4801F001F84F4BC7
:10248C00BB664CE04E49464801F016F90346002B5A
:10249C0006D14C49424801F00FF90346002B0BD0F2
:1024AC0001224FF400513848FEF704FD464800F075
:1024BC00E7FF464BBB6632E04549394801F0FCF872
:1024CC000346002B06D14349354801F0F5F8034685
:1024DC00002B0BD001224FF480412B48FEF7EAFC75
:1024EC003D4800F0CDFF3D4BBB6618E03C492C4805
:1024FC0001F0E2F80346002B06D13A49284801F0D6
:10250C00DBF80346002B0AD000224FF4E0411E48B2
:10251C00FEF7D0FC344800F0B3FF244BBB66381DEB
:10252C00BB6E324A402100F0B3FFF865FB6D002B07
:10253C0006DDFB6D9AB2391DC8231048FFF7E4F88D
:10254C002B4B00221A804FF480720021144801F0AA
:10255C00ABF8274B1B88002B3FF42BAF254B1B688C
:10256C003A6ED31A40F6B83293427FF622AF204B24
:10257C0000221A801DE700BF38010020A8000020AF
:10258C0039010020F0000020000C014088450008B3
:10259C003E0200203C0100203C02002042030020AF
:1025AC0040020020AC45000850030020B84500084C
:1025BC00BC450008C8450008D8450008E845000897
:1025CC00EC450008FC4500080C4600081C460008B9
:1025DC0024460008344600084446000854460008C7
:1025EC005C460008684600087846000888460008E3
:1025FC00400300204403002080B594B000AF07F1E5
:10260C00280328220021184601F04EF807F1140384
:10261C0000221A605A609A60DA601A613B1D00222F
:10262C001A605A609A60DA600123BB624FF48033FF
:10263C00FB6200233B630123BB6302237B644FF4E7
:10264C008033BB644FF4E013FB6407F12803184696
:10265C00FDF7E6FD0346002B01D000F0B7F90F2380
:10266C007B610223BB610023FB614FF480633B62FF
:10267C0000237B6207F1140302211846FEF752F87F
:10268C000346002B01D000F0A1F902237B604FF42C
:10269C000043FB603B1D1846FEF7D2F90346002BA6
:1026AC0001D000F093F900BF5037BD4680BD00004B
:1026BC0080B500AF114B124A1A60104B4FF4E13247
:1026CC005A600E4B00229A600C4B0022DA600B4BC6
:1026DC0000221A61094B0C225A61084B00229A61A4
:1026EC00064B0022DA610548FEF7BEFF0346002BBD
:1026FC0001D000F06BF900BF80BD00BFA800002026
:10270C000038014080B500AF114B124A1A60104BD3
:10271C004FF4E1325A600E4B00229A600C4B0022AF
:10272C00DA600B4B00221A61094B0C225A61084BE0
:10273C0000229A61064B0022DA610548FEF794FFED
:10274C000346002B01D000F041F900BF80BD00BF53
:10275C00F00000200048004080B58AB000AF07F1BF
:10276C00140300221A605A609A60DA60504B9B691D
:10277C004F4A43F0100393614D4B9B6903F01003D8
:10278C003B613B694A4B9B69494A43F02003936187
:10279C00474B9B6903F02003FB60FB68444B9B6930
:1027AC00434A43F004039361414B9B6903F00403D8
:1027BC00BB60BB683E4B9B693D4A43F00803936189
:1027CC003B4B9B6903F008037B607B6804237B61B4
:1027DC000123BB610123FB6102233B6207F114035C
:1027EC0019463448FEF7E2F9012204213148FEF77C
:1027FC0061FB4FF400737B610223BB610023FB611F
:10280C0001233B6207F1140319462A48FEF7CEF95F
:10281C004FF480637B610023BB610123FB6107F1F3
:10282C00140319462348FEF7C1F949F6FB137B61E3
:10283C000323BB610023FB6107F1140319461D48F8
:10284C00FEF7B4F94FF23B33FB84FB8C23F4E043EB
:10285C00FB84FB8C7B610323BB610023FB6107F1D1
:10286C00140319461448FEF7A1F94FF40053BB8426
:10287C00BB8C002B0BD0BB8C7B610323BB61002377
:10288C00FB6107F1140319460C48FEF78FF903237B
:10289C007B610323BB610023FB6107F11403194621
:1028AC000748FEF783F900BF2837BD4680BD00BF3F
:1028BC000010024000080140000C014000100140D3
:1028CC000014014080B584B000AFF860B9607A6044
:1028DC007B689AB26423B9680348FEF715FF7B68DE
:1028EC0018461037BD4680BDF000002080B584B07E
:1028FC0000AF78607B681A68294B1B689A423AD102
:10290C00284B1B889BB201335A42DBB2D2B258BF60
:10291C005342FB81244B1B88FA899A420AD0214BE3
:10292C001B889BB21A46214B1978214B99541D4A8E
:10293C00FB8913801F4B1B88FF2B0AD81D4B1B8850
:10294C005A1C91B21B4A11801A46184B19781A4B13
:10295C009954164B1B787D2B02D1184B01221A70FF
:10296C00FDF754FC0346164A136001220F490C482C
:10297C00FEF755FF10E07B681A68124B1B689A42F1
:10298C000AD16423012210490548FEF7BDFE01223D
:10299C000D490C48FEF743FF00BF1037BD4680BD04
:1029AC00A80000203C0200203E020020380100203C
:1029BC003C01002040030020400200204203002084
:1029CC0044030020F00000203901002080B400AF47
:1029DC0072B600BF00BFFDE780B400AF00BFFDE7DB
:1029EC0080B400AF00BFFDE780B400AF00BFFDE7CF
:1029FC0080B400AF00BFFDE780B400AF00BFFDE7BF
:102A0C0080B400AF00BFBD4680BC704780B400AF3F
:102A1C0000BFBD4680BC704780B400AF00BFBD4650
:102A2C0080BC704780B500AFFDF7DEFB00BF80BDFA
:102A3C0080B500AF0248FEF717FF00BF80BD00BF96
:102A4C00A800002080B500AF0248FEF70DFF00BFC4
:102A5C0080BD00BFF000002080B485B000AF154BE6
:102A6C009B69144A43F001039361124B9B6903F079
:102A7C000103BB60BB680F4BDB690E4A43F080530C
:102A8C00D3610C4BDB6903F080537B607B680A4B92
:102A9C005B68FB60FB6823F0E063FB60FB6843F062
:102AAC000073FB60044AFB68536000BF1437BD46DB
:102ABC0080BC7047001002400000014080B58CB013
:102ACC0000AF786007F1200300221A605A609A6008
:102ADC00DA607B681B68464A934246D1454B9B693A
:102AEC00444A43F480439361424B9B6903F4804313
:102AFC00FB61FB693F4B5B693E4A43F00103536149
:102B0C003C4B5B6903F00103BB61BB69394B9B69AF
:102B1C00384A43F004039361364B9B6903F004037A
:102B2C007B617B694FF400733B6202237B6203235E
:102B3C00FB6207F1200319462F48FEF737F84FF4D4
:102B4C0080633B6200237B620023BB6207F120039E
:102B5C0019462948FEF72AF8002200212520FEF705
:102B6C004CFB2520FEF765FB3EE07B681B68234A87
:102B7C00934239D11F4BDB691E4A43F48023D36146
:102B8C001C4BDB6903F480233B613B69194B9B694C
:102B9C00184A43F008039361164B9B6903F0080332
:102BAC00FB60FB684FF480633B6202237B62032370
:102BBC00FB6207F1200319461148FDF7F7FF4FF4AC
:102BCC0000633B6200237B620023BB6207F120039E
:102BDC0019460B48FDF7EAFF002200212720FEF7DB
:102BEC000CFB2720FEF725FB00BF3037BD4680BD10
:102BFC00003801400010024000080140004800402D
:102C0C00000C014080B586B000AF7860144A154BBB
:102C1C00D31A7B617B693B61134B1B68002B02D180
:102C2C00114B124A1A60104B1A687B6813443A69AC
:102C3C009A4207D200F09CFD03460C221A604FF01A
:102C4C00FF3309E0084B1B68FB60074B1A687B6875
:102C5C001344054A1360FB6818461837BD4680BDFF
:102C6C00005000200004000048030020C80400208D
:102C7C0080B586B000AFF860B9607A6000237B61E4
:102C8C000AE0AFF300800146BB685A1CBA60CAB2B6
:102C9C001A707B6901337B617A697B689A42F0DB3D
:102CAC007B6818461837BD4680BD80B483B000AF32
:102CBC0078604FF0FF3318460C37BD4680BC704728
:102CCC0080B483B000AF786039603B684FF4005239
:102CDC005A60002318460C37BD4680BC704780B440
:102CEC0083B000AF7860012318460C37BD4680BC1A
:102CFC00704780B485B000AFF860B9607A6000238B
:102D0C0018461437BD4680BC70470000FDF720FA0A
:102D1C000B480C490C4A002302E0D458C45004332D
:102D2C00C4188C42F9D3094A094C002301E0136002
:102D3C000432A242FBD300F021FDFFF7FFFA7047EB
:102D4C000000002068000020F44900086800002002
:102D5C00C4040020FEE7000080B584B000AF7860AA
:102D6C000B4BFB60FB681B78382B09D1FB680133DC
:102D7C001B78392B04D1F968786800F026FD03E044
:102D8C007B6800221A7000BF00BF1037BD4680BDA3
:102D9C0000FC0008B0B58AB000AF7860FEF7D4FA3A
:102DAC0007F1100300221A605A609A60DA6000235F
:102DBC003B611D4BBB610123FB6107F10C0207F169
:102DCC00100311461846FEF7A7FB00237B6221E097
:102DDC007B6A7A6813441B781AB27B6A0133796870
:102DEC000B441B781BB21B021BB213431BB27B841C
:102DFC007B6A03F1006303F57C4319467B8C00224C
:102E0C001C46154622462B460120FEF72DFA7B6AFE
:102E1C0002337B627B6A1F2BDADDFEF7BBFA00BF45
:102E2C002837BD46B0BD00BF00FC000880B582B09D
:102E3C0000AF78607868FDF763F903469AB26423B3
:102E4C0079680348FEF760FC00BF0837BD4680BDBB
:102E5C00A800002080B500AF0E48FFF77DFF0D4B9A
:102E6C001B78002B14BF01230023DBB21A460A4B3C
:102E7C001A70094B1B78002B04D00649074800F048
:102E8C0097FA02E0064800F0FBFA064B00221A7093
:102E9C0000BF80BD500300207003002000470008D5
:102EAC00204700084C03002080B5A0B000AF78602C
:102EBC00A04B1B780D2B00F0A58140F6C413FB67CB
:102ECC009C4B1B78002B03D142F21073FB6706E07E
:102EDC00984B1B780C2B02D144F62063FB67964B66
:102EEC001B687A68D31AFA6F9A4200F28D81924A63
:102EFC007B6813608F4B1B780C2B00F27F8101A237
:102F0C0052F823F0452F00084D2F0008612F0008C0
:102F1C00752F0008892F0008D52F00081B300008DA
:102F2C006130000875300008A53000080731000832
:102F3C001B310008353100087E4B01221A7064E108
:102F4C007E4800F09DFA7E48FFF770FF794B022215
:102F5C001A705AE17B4800F093FA7B48FFF766FF42
:102F6C00744B03221A7050E1784800F089FA7848C3
:102F7C00FFF75CFF6F4B04221A7046E1754800F0B6
:102F8C007FFA754B1B78002B0BD0744B1B78002BE6
:102F9C0007D007F10C00714B714A602100F078FAF0
:102FAC0009E0704B1B68FB6607F10C00FB6E6E4A68
:102FBC00602100F06DFA07F10C031846FFF736FF9D
:102FCC005C4B05221A7020E1684800F059FA624BFC
:102FDC001B78002B0BD0614B1B78002B07D007F113
:102FEC000C005E4B624A602100F052FA06E007F1D9
:102FFC000C03604A6021184600F04AFA07F10C03F2
:10300C001846FFF713FF4B4B06221A70FDE05A4887
:10301C0000F036FA504B1B78002B0BD04F4B1B7823
:10302C00002B07D007F10C004C4B544A602100F0E8
:10303C002FFA06E007F10C03514A6021184600F004
:10304C0027FA07F10C031846FFF7F0FE394B07225D
:10305C001A70DAE04B4800F013FA4B48FFF7E6FE23
:10306C00344B08221A70D0E03B4B1B78002B06D057
:10307C00464800F005FA2F4B0A221A70C5E0444B63
:10308C0000221A80434800F0FBF94348FFF7CEFEBC
:10309C00284B09221A70B8E04049414800F00CFB5B
:1030AC0038673B6F002B24D03B6F0733BB6702E0C4
:1030BC00BB6F0133BB67BB6F1B782F2B03D9BB6F67
:1030CC001B78392BF4D9BB6F00221A703B6F073376
:1030DC001946224800F079FB2049324800F068F983
:1030EC001E48FFF757FE1C4B01221A702E4800F0A9
:1030FC00C7F9104B0A221A7087E02C4800F0C0F96F
:10310C002B48FFF793FE0B4B0B221A707DE02948DE
:10311C0000F0B6F92848FFF789FE1D4B00221A80F3
:10312C00044B0C221A7070E00C4B1B78002B45D012
:10313C000A4B44E04C030020740300204047000875
:10314C004C470008504700085C47000870470008CF
:10315C0080470008A447000870030020500300209B
:10316C00B4470008E8F7FF1FD4470008F8470008E9
:10317C00084800082C4800084C4800085C48000827
:10318C0084480008A8480008B0480008B84800085F
:10319C0040030020DC480008EC480008F848000810
:1031AC0040020020004900080C490008244900088E
:1031BC00304900083849000844490008144B07F10D
:1031CC000C00144A602100F063F978677B6F002BC8
:1031DC0007DD7B6F9AB207F10C01C8230E48FEF78E
:1031EC0093FA07F10C0319460C4800F0E1F80C4B6C
:1031FC0000221A800B4B0D221A7006E0094B0D228F
:10320C001A7002E000BF00E000BF8037BD4680BDF1
:10321C004C49000854490008A800002070490008D7
:10322C00400300204C030020002310B50446C0E9E5
:10323C000033C0E90433836081814366C2818361BA
:10324C00194608225C3000F02FFA0D4B24626362A1
:10325C000C4BA3620C4BE3620C4B23630C4B9C4258
:10326C0006D003F16802944202D0D0339C4205D1BF
:10327C0004F15800BDE8104000F0A4BA10BD00BF26
:10328C00093500082B35000863350008893500081E
:10329C0078030020024A0349034800F06BB800BFD2
:1032AC000C0000202D4300081C00002041680C4B32
:1032BC0010B59942044601D001F032F8A168094BCF
:1032CC00994202D0204601F02BF8E168064B994256
:1032DC0004D02046BDE8104001F022B810BD00BF5C
:1032EC0078030020E0030020480400200C4B0D4A1A
:1032FC0010B504211A600C480022FFF795FF0A4B09
:10330C0001221C46092103F16800FFF78DFF04F12F
:10331C00D0000222BDE810401221FFF785BF00BF8C
:10332C00B0040020A132000878030020014800F00E
:10333C004ABA00BFB9040020014800F045BA00BFEA
:10334C00B904002010B50446FFF7F0FF236A1BB147
:10335C00BDE81040FFF7F0BF044B2362044B1B6821
:10336C00002BF5D1FFF7C2FFF2E700BFB93200081E
:10337C00B00400202DE9F843074688461446002681
:10338C00D4E90195B9F1010905D52468002CF7D1D0
:10339C003046BDE8F883AB89012B07D9B5F90E305F
:1033AC00013303D029463846C04706436835E9E760
:1033BC000FB407B5064904AB086853F8042B8168B1
:1033CC00019300F085FC03B05DF804EB04B070478A
:1033DC0018000020036A70B505460E4684680BB9C8
:1033EC00FFF7B0FF636EDB0705D4A389980502D401
:1033FC00A06D00F0E8F9A389190702D52369002B09
:10340C0035D12146284600F0FBF880B34FF0FF354C
:10341C00636EDA0705D4A3899B0502D4A06D00F076
:10342C00D3F9284670BD002B04DAA269934217DB4E
:10343C000A2915D023685A1C22601970A36816F843
:10344C00011F013BA3600029EDD1002B11DA2246AC
:10345C000A21284600F096F80130D7D00A25D7E784
:10346C002246284600F08EF80130E7D1CEE7013E27
:10347C00E4E723685A1C22600A221A70EEE7000067
:10348C00024B01461868FFF7A5BF00BF18000020CB
:10349C000CB430B5184B0C1E1D689DB008DA8B238C
:1034AC004FF0FF302B601DB0BDE8304002B07047CC
:1034BC004FF40273ADF814304FF000031B930CBFA4
:1034CC00234604F1FF33049307934FF6FF730290E6
:1034DC000690ADF81630284621AB209A02A901932C
:1034EC0000F0D2FA431CBCBF8B232B60002CDAD02B
:1034FC000022029B1A70D6E71800002010B50C466B
:10350C00B1F90E1000F010F90028ABBF636DA38960
:10351C001B1823F48053ACBF6365A38110BD2DE948
:10352C00F0411F468B890546DB050C46164605D532
:10353C0002230022B1F90E1000F0E4F8A389324600
:10354C0023F48053A38128463B46B4F90E10BDE802
:10355C00F04100F0FBB810B50C46B1F90E1000F0BC
:10356C00D1F8B4F90C30421C0BBF23F4805343F454
:10357C008053A381A38118BF606510BDB1F90E10F3
:10358C0000F0B0B8F8B50E461446054618B1036AFB
:10359C000BB9FFF7D7FEA369A360A3891A0701D55E
:1035AC00236943B92146284600F02AF818B14FF098
:1035BC00FF373846F8BD23682269F6B2981A63695A
:1035CC003746834205DC2146284600F0A9FE002838
:1035DC00EDD1A368013BA36023685A1C22601E70C6
:1035EC006269431C9A4204D0A389DB07E1D50A2EF9
:1035FC00DFD12146284600F093FE0028D9D0D6E72B
:10360C0038B5284B054618680C4618B1036A0BB937
:10361C00FFF798FEB4F90C301A0721D4D80607D45A
:10362C0009222A6043F040034FF0FF30A38130E0C1
:10363C00590712D5616B41B104F14403994202D090
:10364C00284600F0CBF8002363630022B4F90C3059
:10365C006260226923F02403226043F00803A381F3
:10366C0022693AB99A0501D5180603D52146284690
:10367C0000F0A2FEB4F90C3013F001020AD00022C3
:10368C00A26062695242A261226942B913F08000C1
:10369C00C8D138BD990758BF6269A260F4E7002011
:1036AC00F7E700BF1800002003460244934200D104
:1036BC00704703F8011BF9E70A7870B56AB970BD59
:1036CC009A4209D10C46054614F8013F002BF6D05E
:1036DC0015F8016F9E42F7D001300378002BEFD123
:1036EC001846ECE738B50023054D044608462B6018
:1036FC00FFF7DBFA431C02D12B6803B1236038BD02
:10370C00B404002038B50446084611460022054D85
:10371C002A601A46FFF7EDFA431C02D12B6803B15D
:10372C00236038BDB404002038B504460846114661
:10373C000022054D2A601A46FFF79AFA431C02D163
:10374C002B6803B1236038BDB404002038B504469F
:10375C00084611460022054D2A601A46FFF7B2F8BA
:10376C00431C02D12B6803B1236038BDB404002084
:10377C00014B1868704700BF1800002070B5002678
:10378C000C4D0D4B5B1B9C10A64209D1002600F082
:10379C00E9FE0A4D0A4B5B1B9C10A64205D170BD7D
:1037AC0055F8043B98470136EEE755F8043B98472B
:1037BC000136F2E7EC490008EC490008EC49000836
:1037CC00F0490008704770477047034611F8012B09
:1037DC0003F8012B002AF9D17047000038B50546D3
:1037EC00002940D051F8043C0C1F002BB8BFE41842
:1037FC0000F0DEF81C4A136833B963601460284685
:10380C00BDE8384000F0DAB8A34208D92068211886
:10381C008B4201BF19685B6809182160EDE71A46F5
:10382C005B680BB1A342FAD911685018A0420BD1B6
:10383C0020680144501883421160E0D118685B681D
:10384C00084410605360DAE702D90C232B60D6E7EA
:10385C00206821188B4201BF19685B680918216028
:10386C0063605460CBE738BDC004002070B50F4EC8
:10387C000C463168054611B900F012FE3060214645
:10388C00284600F00DFE431C03D14FF0FF342046B8
:10389C0070BDC41C24F00304A042F8D0211A2846A1
:1038AC0000F0FEFD0130F2D1EFE700BFBC040020B8
:1038BC002DE9F843CD1C25F0030508350C2D38BF38
:1038CC000C25002D064601DBA94204D90C233360DC
:1038DC000020BDE8F883DFF8D48000F069F8D8F850
:1038EC0000301C4644BB29463046FFF7BFFF431C43
:1038FC00044658D1D8F800402746002F43D1002C5D
:10390C004BD023683946304604EB030900F0C8FD60
:10391C00814542D1216830466D1A2946FFF7A6FF32
:10392C0001303AD023682B442360D8F800305A6811
:10393C0062BBC8F800700FE02268521B20D40B2A1F
:10394C0017D96119A342256018BF5960636808BF75
:10395C00C8F8001062514B60304600F02FF804F1AB
:10396C000B00231D20F00700C21A1CBF1B1AA3500A
:10397C00AFE76268A3420CBFC8F800205A60EBE7BF
:10398C0023466468AEE73C467F68B6E71A465B6838
:10399C00A342FBD100235360DEE70C233046336097
:1039AC0000F00CF894E70560D6E700BFC0040020D7
:1039BC000148FFF708BF00BFB80400200148FFF71B
:1039CC0003BF00BFB80400202DE9F0471F468E68E6
:1039DC008246BE420C469046334653D8B1F90C0091
:1039EC0010F4906F2BD065692368096905EB4505C8
:1039FC00A3EB010905EBD5757B1C6D104B44AB4259
:103A0C002A4684BF1D462A46430527D511465046F3
:103A1C00FFF74EFF064658B34A46216900F05EFD9B
:103A2C00A38923F4906343F08003A38126614E4461
:103A3C0026603B463E466561A5EB0905A5601F4621
:103A4C003A464146206800F0F0FC0020A3689B1B1E
:103A5C00A36023683B442360BDE8F087504600F028
:103A6C004BFD06460028E1D150462169FFF7B6FE12
:103A7C000C23CAF80030A3894FF0FF3043F0400309
:103A8C00A381E9E73E46DBE72DE9F04F98468B89A9
:103A9C0007461B060D4614469DB010D50B6973B92D
:103AAC004021FFF705FF2860286130B90C233B60EB
:103ABC004FF0FF301DB0BDE8F08F40236B61002349
:103ACC00099320238DF8293030234FF00109CDF8CC
:103ADC000C80DFF898818DF82A3023469A4613F82B
:103AEC00012B0AB1252AF9D1BAEB040B0BD05B469A
:103AFC00224629463846FFF767FF013000F0A780C1
:103B0C00099A5A4409929AF80030002B00F09F80D1
:103B1C0000234FF0FF32CDE905230AF1010A04938B
:103B2C0007938DF853301A935446052214F8011B51
:103B3C004E4800F0C5FC049AD8B9D00644BF2023E7
:103B4C008DF85330110744BF2B238DF853309AF85E
:103B5C0000302A2B15D0544600204FF00A0C079A3F
:103B6C00214611F8013B303B092B4BD9B0B10792E0
:103B7C0014E0A0EB080309FA03F31343A2460493E1
:103B8C00D2E7039B191D1B680391002BBBBF5B4243
:103B9C0042F0020207930793B8BF049223782E2BAE
:103BAC000AD163782A2B32D1039B02341A1D1B686D
:103BBC00039243EAE3730593DFF8B4A00322504663
:103BCC00217800F07DFC38B14022049BA0EB0A0068
:103BDC00824013430134049314F8011B0622254838
:103BEC008DF8281000F06CFC002836D0224B1BBB43
:103BFC00039B073323F0070308330393099B3344D8
:103C0C0009936AE70C4601200CFB0232A8E700235B
:103C1C004FF00A0C194601340593204610F8012B7D
:103C2C00303A092A03D9002BC6D00591C4E70446C3
:103C3C0001230CFB0121F0E703AB00932A46384625
:103C4C000E4B04A9AFF30080421C0646D6D1AB89BB
:103C5C005B063FF52DAF09982CE703AB00932A4682
:103C6C003846064B04A900F0BDF9EDE7AE49000853
:103C7C00B4490008B849000800000000D539000814
:103C8C00936810B4013B002B936007DA9469A3424C
:103C9C0001DB0A2902D110BCFFF774BC1368581C55
:103CAC0010601970084610BC7047F8B506460F46F0
:103CBC001446D518AC4201D1002007E03A463046F4
:103CCC0014F8011BFFF7DCFF431CF3D1F8BD000017
:103CDC002DE9F04F0D461446984606469DB018B196
:103CEC00036A0BB9FFF72EFB6B6ED90705D4AB89B2
:103CFC009A0502D4A86DFFF766FDAB891B0701D5A9
:103D0C002B699BB929463046FFF77AFC70B16B6E74
:103D1C00DC0704D54FF0FF301DB0BDE8F08FAB8948
:103D2C009805F7D4A86DFFF74FFDF3E7002309932F
:103D3C0020238DF8293030234FF00109CDF80C8069
:103D4C00DFF8A8818DF82A3023469A4613F8012B08
:103D5C000AB1252AF9D1BAEB040B0BD05B462246EB
:103D6C0029463046FFF7A1FF013000F0A780099AE1
:103D7C005A4409929AF80030002B00F09F800023DF
:103D8C004FF0FF32CDE905230AF1010A04930793A2
:103D9C008DF853301A935446052214F8011B5348DE
:103DAC0000F08EFB049AD8B9D10644BF20238DF8BD
:103DBC005330130744BF2B238DF853309AF800303F
:103DCC002A2B15D0544600204FF00A0C079A214696
:103DDC0011F8013B303B092B4BD9B0B1079214E0E1
:103DEC00A0EB080309FA03F31343A2460493D2E7AA
:103DFC00039B191D1B680391002BBBBF5B4242F058
:103E0C00020207930793B8BF049223782E2B0AD192
:103E1C0063782A2B32D1039B02341A1D1B68039240
:103E2C0043EAE3730593DFF8C8A0032250462178D8
:103E3C0000F046FB38B14022049BA0EB0A00824004
:103E4C0013430134049314F8011B062229488DF8FE
:103E5C00281000F035FB00283FD0274B1BBB039BE1
:103E6C00073323F0070308330393099B3B4409935F
:103E7C006AE70C4601200CFB0232A8E700234FF046
:103E8C000A0C194601340593204610F8012B303AE0
:103E9C00092A03D9002BC6D00591C4E70446012397
:103EAC000CFB0121F0E703AB00932A463046134B81
:103EBC0004A9AFF300800746781CD6D16B6ED907E6
:103ECC0005D4AB899A0502D4A86DFFF77DFCAB89AC
:103EDC005B063FF51FAF09981EE703AB00932A461C
:103EEC003046064B04A900F07DF8E4E7AE49000823
:103EFC00B4490008B849000800000000B73C0008AD
:103F0C002DE9F047164698468A680B690746934296
:103F1C00B8BF1346336091F843200C46DDF820906F
:103F2C000AB1013333602368990642BF3368023308
:103F3C003360256815F0060506D104F1190AE3680B
:103F4C0032689B1AAB422BDC94F843302268003B5E
:103F5C0018BF0123920630D44146384604F143027F
:103F6C00C847013023D02368226903F00603042BD1
:103F7C0014BF002533684FF0000608BFE56804F154
:103F8C001A0408BFED1A54F8123C08BF25EAE5756F
:103F9C009342C4BF9B1AED18B5421AD1002008E019
:103FAC000123524641463846C847013003D14FF0F1
:103FBC00FF30BDE8F0870135C1E73020E11881F80A
:103FCC0043005A1C94F845102244023382F84310E3
:103FDC00C2E70123224641463846C8470130E6D0A5
:103FEC000136D9E72DE9FF470F7E9146782F8046A1
:103FFC000C469A460C9E01F1430207D8622F0AD850
:10400C00002F00F0D280582F00F0B78004F1420648
:10401C0084F842703AE0A7F16303152BF6D801A19E
:10402C0051F823F0894000089D4000081940000811
:10403C001940000819400008194000089D4000086C
:10404C0019400008194000081940000819400008E0
:10405C009D410008C7400008534100081940000862
:10406C0019400008BF41000819400008C74000086B
:10407C0019400008194000085B41000833681A1DFC
:10408C001B68326004F1420684F8423001239DE043
:10409C0033682068191D3160060601D51D6803E0E0
:1040AC004506FBD5B3F90050002D03DA2D236D42E4
:1040BC0084F843300A23594810E021683368080615
:1040CC0053F8045B02D4490648BFADB26F2F534876
:1040DC00336059D10823002184F843106668002E00
:1040EC00A66005DB21682E4321F0040121604DD030
:1040FC001646B5FBF3F103FB1157C75D06F8017DBE
:10410C002F46BB420D46F4D9082B0BD12368DF0791
:10411C0008D5236961689942DEBF302306F8013C5B
:10412C0006F1FF36921B22614B4621464046CDF8E4
:10413C0000A003AAFFF7E4FE01304CD14FF0FF3092
:10414C0004B0BDE8F087236843F020032360782790
:10415C00334884F84570236831681F0651F8045BB6
:10416C0002D45F0648BFADB23160D90744BF43F0FB
:10417C00200323601DB11023ADE72848E9E723682D
:10418C0023F020032360F6E70A23A4E71646BBE7D7
:10419C0033682568181D616930602E061B6801D5CF
:1041AC00196002E06806FBD51980002316462361CE
:1041BC00BAE7336800211A1D32601E686268304607
:1041CC0000F07EF908B1801B6060636823610023F6
:1041DC0084F84330A8E73246494640462369D04725
:1041EC000130ABD023689B0713D4E068039B984243
:1041FC00B8BF1846A4E70123324649464046D0478B
:10420C0001309BD00135E36803995B1AAB42F2DCB9
:10421C00EBE7002504F11906F5E700BFBF490008DC
:10422C00D0490008B1F90C20F8B5160705460C4624
:10423C0051D44B68002B02DC0B6C002B49DDE66A79
:10424C00002E46D0002312F480522F682B6031D000
:10425C00626DA389590705D56368D21A636B0BB1DC
:10426C00236CD21A00232846E66A216AB047421C06
:10427C00B4F90C3006D129681D2945D8274ACA4003
:10428C00D60741D5002262602269D904226004D588
:10429C00421C01D12B6803B96065616B2F60C1B101
:1042AC0004F14403994202D02846FFF797FA002301
:1042BC0063630EE001232846216AB0470246501C76
:1042CC00C7D12B68002BC4D01D2B01D0162B19D1B4
:1042DC002F6000201DE00F69002FFAD0930718BF44
:1042EC0000230E6808BF4B69F61B0F608B60002E15
:1042FC00EFDD33463A462846216AD4F828C0E04719
:10430C00002807DCB4F90C304FF0FF3043F04003C9
:10431C00A381F8BD0744361AE9E700BF010040202D
:10432C0038B50B6905460C4613B90025284638BD2F
:10433C0018B1036A0BB9FFF705F8B4F90C30002B70
:10434C00F3D0626ED00704D4990502D4A06DFFF7A8
:10435C003AFA28462146FFF765FF636E0546DA07F1
:10436C00E4D4A3899B05E1D4A06DFFF72DFADDE71A
:10437C0070B50C46B1F90E10154600291E4696B0C4
:10438C000ADAA18911F0800113D14FF48062002068
:10439C0031602A6016B070BD6A4600F05FF80028E4
:1043AC00EFDB019901F47041A1F5005359425941D9
:1043BC00EBE700214022EAE78B8973B59E0705469F
:1043CC000C4607D504F14703236023610123636185
:1043DC0002B070BD01AB6A46FFF7CAFF009E2846CB
:1043EC003146FFF765FAB4F90C3038B99A05EFD4B9
:1043FC0023F0030343F00203A381E3E743F08003BC
:10440C00A381019BC4E904062060002BE0D0284660
:10441C00B4F90E1000F034F80028D9D0A38923F099
:10442C00030343F00103A381D2E7884210B501EBEB
:10443C00020402D98442234607D8431EA14207D066
:10444C0011F8012B03F8012FF8E70244824200D146
:10445C0010BD13F8011D02F8011DF7E738B5002354
:10446C00064D0446084611462B60FEF729FC431CFA
:10447C0002D12B6803B1236038BD00BFB404002007
:10448C0038B50023054D044608462B60FEF727FC83
:10449C00431C02D12B6803B1236038BDB404002047
:1044AC0038B50023054D044608462B60FEF7AAFBE1
:1044BC00431C02D12B6803B1236038BDB404002027
:1044CC00034610B5C9B202449342184601D10020EC
:1044DC0003E0047801338C42F6D110BD0A449142BA
:1044EC0000F1FF3300D1704710B511F8014B914228
:1044FC0003F8014FF9D110BD2DE9F04107461446E0
:10450C000D4621B91146BDE8F041FFF7D1B92AB9E2
:10451C00FFF764F925462846BDE8F08100F01AF84B
:10452C008442064602D8B4EB500FF4D821463846E4
:10453C00FFF7BEF9804608B94546ECE7B44222467F
:10454C00294628BF3246FFF7C9FF29463846FFF7F0
:10455C0045F9F1E751F8043C181F002BBCBF0B5870
:10456C00C0187047F8B500BFF8BC08BC9E46704731
:0C457C00F8B500BFF8BC08BC9E467047B4
:104588000D0A3D3D3D2053544D3332203447204CD5
:10459800454420436F6E74726F6C6C6572203D3DAC
:1045A8003D0D00004D5154543E2025730D0A000066
:1045B8006F66660022636D64223A22726564220087
:1045C80022636D64223A2022726564220000000092
:1045D8004C45443A20524544204F4E0D00000000FF
:1045E8007265640022636D64223A22626C756522EA
:1045F8000000000022636D64223A2022626C756517
:10460800220000004C45443A2059454C4C4F572055
:104618004F4E0D0079656C6C6F77000022636D64F6
:10462800223A22677265656E2200000022636D647B
:10463800223A2022677265656E2200004C45443A92
:1046480020475245454E204F4E0D00006772656564
:104658006E00000022636D64223A226F66662200B3
:1046680022636D64223A20226F66662200000000F1
:104678004C45443A20414C4C204F46460D00000022
:104688007B22636D64223A222573222C2273746183
:10469800747573223A226F6B227D000053433741B1
:1046A800323048206465746563746564202857480F
:1046B8004F5F414D5F493D307825303258290D0A0A
:1046C8000000000053433741323048206E6F742099
:1046D800666F756E64202869643D307825303258DD
:1046E800290D0A005343374132304820636F6E6604
:1046F8006967757265640D004943434944206C6FCE
:10470800616465642066726F6D20666C6173683AD7
:104718002025730D0A0000004E6F20494343494489
:1047280020696E20666C6173682C2077696C6C2038
:1047380071756572790D000034473A202B2B2B0DCB
:10474800000000002B2B2B0034473A20574B4D4FCD
:10475800440D000041542B574B4D4F44313D4D51B2
:1047680054540D0A0000000034473A204D51545467
:104778005356310D0000000041542B4D51545453F1
:1047880056313D62726F6B65722E656D71782E6958
:104798006F2C313838330D0A0000000034473A20B6
:1047A8004D515454434F4E4E310D000041542B4D42
:1047B800515454434F4E4E313D636172645F2573CB
:1047C8002C2C2C36302C310D0A00000041542B4D76
:1047D800515454434F4E4E313D73746D33325F25FF
:1047E8003038582C2C2C36302C310D0A00000000A3
:1047F80034473A204D515454505542310D00000071
:1048080041542B4D515454505542313D4454555FF9
:10481800546F706963313134372F25732C302C3045
:104828000D0A000041542B4D515454505542313D0E
:104838004454555F546F706963313134372C302CD0
:10484800300D0A0034473A204D51545453554231E3
:104858000D00000041542B4D515454535542313DE5
:104868007869616F79657A695545535443313134B4
:10487800372F25732C300D0A0000000041542B4DB2
:10488800515454535542313D7869616F79657A695D
:104898005545535443313134372C300D0A0000004C
:1048A80034473A2041540D0041540D0A00000000DD
:1048B800494343494420616C7265616479206C6F97
:1048C800616465642C20736B6970207175657279F9
:1048D8000D00000034473A2041542B4943434944D2
:1048E8003F0D000041542B49434349443F0D0A0002
:1048F8002B49434349443A0049434349443A202514
:10490800730D0A0049434349442073617665642066
:10491800746F20666C6173680D00000034473A209C
:1049280041542B530D00000041542B530D0A000035
:1049380034473A2041542B5A0D00000041542B5A59
:104948000D0A0000756E6B6E6F776E007B22636DCB
:1049580064223A227265616479222C226964223ABF
:10496800222573227D00000034473A2052454144F5
:104978005920282573290D0A0000000000000000B6
:1049880000000000010203040607080900000000F7
:104998000102030402030405060708090A0B0C0DAB
:1049A8000E0F10100102232D302B2000686C4C00D4
:1049B8006566674546470030313233343536373817
:1049C8003941424344454600303132333435363775
:0C49D8003839616263646566000000000D
:0849E40028B7FF7F010000006D
:0449EC00410100087D
:0449F0001D0100089D
:1049F40000127A0010000000010000000000000016
:104A040003000000780300201C00002000000000C8
:104A140078030020E0030020480400200000000088
:104A24000000000000000000000000000000000082
:104A34000000000000000000000000000000000072
:104A44000000000000000000000000000000000062
:084A540000000000000000005A
:0400000508002D19A9
:00000001FF
