:020000040800F2
:1000000000500020412D00089D290008A529000866
:10001000AD290008B5290008BD290008000000002E
:10002000000000000000000000000000C5290008DA
:10003000D129000800000000DD290008E929000896
:10004000892D0008892D0008892D0008892D0008B8
:10005000892D0008892D0008892D0008892D0008A8
:10006000892D0008892D0008892D0008892D000898
:10007000892D0008892D0008892D00081D2A0008F7
:10008000892D0008892D0008892D0008892D000878
:10009000892D0008892D0008892D0008892D000868
:1000A000892D0008892D0008892D0008892D000858
:1000B000892D0008892D0008892D0008892D000848
:1000C000892D0008892D0008892D0008892D000838
:1000D000892D0008F5290008892D0008092A000843
:1000E000892D0008892D0008892D000800000000D6
:1000F0000000000000000000000000000000000000
:0C01000000000000000000005FF808F1A3
:10010C0010B5054C237833B9044B13B10448AFF345
:10011C0000800123237010BD680000200000000047
:10012C00F836000808B5034B1BB103490348AFF37D
:10013C00008008BD000000006C000020F8360008AC
:10014C0080B400AF00BFBD4680BC704780B500AF27
:10015C00084B1B68074A43F010031360032001F09F
:10016C0099F90F2000F008F802F05CFC0023184607
:10017C0080BD00BF0020024080B582B000AF786027
:10018C00124B1A68124B1B7819464FF47A73B3FB57
:10019C00F1F3B2FBF3F3184601F0B1F90346002B6F
:1001AC0001D001230EE07B680F2B0AD8002279685E
:1001BC004FF0FF3001F079F9064A7B681360002399
:1001CC0000E0012318460837BD4680BD0000002022
:1001DC00080000200400002080B400AF054B1B7801
:1001EC001A46054B1B681344034A136000BFBD46F7
:1001FC0080BC7047080000208400002080B400AF51
:10020C00024B1B681846BD4680BC7047840000201A
:10021C0080B586B000AF78607B68002B01D10123DC
:10022C0072E27B681B6803F00103002B00F08780EF
:10023C00924B5B6803F00C03042B0CD08F4B5B6868
:10024C0003F00C03082B12D18C4B5B6803F4803346
:10025C00B3F5803F0BD1894B1B6803F40033002BA3
:10026C006CD07B685B68002B68D101234CE27B6807
:10027C005B68B3F5803F06D1804B1B687F4A43F423
:10028C00803313602EE07B685B68002B0CD17B4BBA
:10029C001B687A4A23F480331360784B1B68774AC7
:1002AC0023F4802313601DE07B685B68B3F5A02FFB
:1002BC000CD1724B1B68714A43F4802313606F4B53
:1002CC001B686E4A43F4803313600BE06B4B1B6866
:1002DC006A4A23F480331360684B1B68674A23F423
:1002EC00802313607B685B68002B13D0FFF786FFBD
:1002FC00386108E0FFF782FF02463B69D31A642B92
:10030C0001D9032300E25D4B1B6803F40033002B7F
:10031C00F0D014E0FFF772FF386108E0FFF76EFFD2
:10032C0002463B69D31A642B01D90323ECE1534BEE
:10033C001B6803F40033002BF0D100E000BF7B6896
:10034C001B6803F00203002B63D04C4B5B6803F07B
:10035C000C03002B0BD0494B5B6803F00C03082BF0
:10036C001CD1464B5B6803F48033002B16D1434BF6
:10037C001B6803F00203002B05D07B681B69012B63
:10038C0001D00123C0E13D4B1B6823F0F8027B68D0
:10039C005B69DB00394913430B603AE07B681B69EE
:1003AC00002B20D0364B01221A60FFF727FF386153
:1003BC0008E0FFF723FF02463B69D31A022B01D951
:1003CC000323A1E12D4B1B6803F00203002BF0D09B
:1003DC002A4B1B6823F0F8027B685B69DB0027491A
:1003EC0013430B6015E0264B00221A60FFF706FF43
:1003FC00386108E0FFF702FF02463B69D31A022B73
:10040C0001D9032380E11D4B1B6803F00203002B71
:10041C00F0D17B681B6803F00803002B3AD07B6893
:10042C009B69002B19D0174B01221A60FFF7E6FECF
:10043C00386108E0FFF7E2FE02463B69D31A022B53
:10044C0001D9032360E10D4B5B6A03F00203002B1F
:10045C00F0D0012000F0CEFA1CE00A4B00221A600A
:10046C00FFF7CCFE38610FE0FFF7C8FE02463B6990
:10047C00D31A022B08D9032346E100BF0010024017
:10048C000000424280044242924B5B6A03F002033A
:10049C00002BE9D17B681B6803F00403002B00F0F0
:1004AC00A6800023FB758B4BDB6903F08053002B7C
:1004BC000DD1884BDB69874A43F08053D361854B60
:1004CC00DB6903F08053BB60BB680123FB75824B77
:1004DC001B6803F48073002B18D17F4B1B687E4A7A
:1004EC0043F480731360FFF789FE386108E0FFF76F
:1004FC0085FE02463B69D31A642B01D9032303E121
:10050C00754B1B6803F48073002BF0D07B68DB68A1
:10051C00012B06D16F4B1B6A6E4A43F00103136229
:10052C002DE07B68DB68002B0CD16A4B1B6A694A97
:10053C0023F001031362674B1B6A664A23F0040322
:10054C0013621CE07B68DB68052B0CD1614B1B6ACA
:10055C00604A43F0040313625E4B1B6A5D4A43F02E
:10056C00010313620BE05B4B1B6A5A4A23F0010335
:10057C001362584B1B6A574A23F0040313627B68BF
:10058C00DB68002B15D0FFF739FE38610AE0FFF766
:10059C0035FE02463B69D31A41F28832934201D9A7
:1005AC000323B1E04B4B1B6A03F00203002BEED08C
:1005BC0014E0FFF723FE38610AE0FFF71FFE024646
:1005CC003B69D31A41F28832934201D903239BE051
:1005DC00404B1B6A03F00203002BEED1FB7D012B79
:1005EC0005D13C4BDB693B4A23F08053D3617B68DC
:1005FC00DB69002B00F08780364B5B6803F00C0343
:10060C00082B61D07B68DB69022B46D1334B00226F
:10061C001A60FFF7F3FD386108E0FFF7EFFD0246C3
:10062C003B69D31A022B01D903236DE0294B1B68BC
:10063C0003F00073002BF0D17B681B6AB3F5803F8D
:10064C0008D1244B5B6823F400327B689B682149FA
:10065C0013434B601F4B5B6823F474127B68196A5D
:10066C007B685B6A0B431B4913434B601B4B01229A
:10067C001A60FFF7C3FD386108E0FFF7BFFD0246C3
:10068C003B69D31A022B01D903233DE0114B1B68A4
:10069C0003F00073002BF0D035E0104B00221A60F1
:1006AC00FFF7ACFD386108E0FFF7A8FD02463B6997
:1006BC00D31A022B01D9032326E0064B1B6803F047
:1006CC000073002BF0D11EE07B68DB69012B07D196
:1006DC00012319E00010024000700040600042420B
:1006EC000B4B5B68FB60FB6803F480327B681B6A16
:1006FC009A4206D1FB6803F470127B685B6A9A42DB
:10070C0001D0012300E0002318461837BD4680BDF8
:10071C000010024080B584B000AF786039607B680F
:10072C00002B01D10123D0E06A4B1B6803F00703B7
:10073C003A689A4210D9674B1B6823F00702654947
:10074C003B6813430B60634B1B6803F007033A6869
:10075C009A4201D00123B8E07B681B6803F00203C6
:10076C00002B20D07B681B6803F00403002B05D002
:10077C00594B5B68584A43F4E06353607B681B68D1
:10078C0003F00803002B05D0534B5B68524A43F42B
:10079C0060535360504B5B6823F0F0027B689B689E
:1007AC004D4913434B607B681B6803F00103002B1E
:1007BC0040D07B685B68012B07D1474B1B6803F467
:1007CC000033002B15D101237FE07B685B68022B83
:1007DC0007D1414B1B6803F00073002B09D1012397
:1007EC0073E03D4B1B6803F00203002B01D1012386
:1007FC006BE0394B5B6823F003027B685B6836491E
:10080C0013434B60FFF7FAFCF8600AE0FFF7F6FCC5
:10081C000246FB68D31A41F28832934201D9032372
:10082C0053E02D4B5B6803F00C027B685B689B000C
:10083C009A42EBD1274B1B6803F007033A689A42A4
:10084C0010D2244B1B6823F0070222493B68134348
:10085C000B60204B1B6803F007033A689A4201D0E7
:10086C00012332E07B681B6803F00403002B08D0E3
:10087C00194B5B6823F4E0627B68DB681649134311
:10088C004B607B681B6803F00803002B09D0124BEC
:10089C005B6823F460527B681B69DB000E491343D1
:1008AC004B6000F021F802460B4B5B681B0903F010
:1008BC000F030A49CB5C22FA03F3094A1360094B74
:1008CC001B681846FFF758FC002318461037BD4626
:1008DC0080BD00BF00200240001002402C390008EF
:1008EC00000000200400002080B487B000AF00237B
:1008FC00FB600023BB6000237B6100237B60002333
:10090C003B611E4B5B68FB60FB6803F00C03042B24
:10091C0002D0082B03D027E0194B3B6127E0FB6882
:10092C009B0C03F00F03174AD35C7B60FB6803F44A
:10093C008033002B10D0114B5B685B0C03F0010370
:10094C00114AD35CBB607B680D4A03FB02F2BB68A7
:10095C00B2FBF3F37B6104E07B680C4A02FB03F30C
:10096C007B617B693B6102E0054B3B6100BF3B69EE
:10097C0018461C37BD4680BC704700BF00100240B3
:10098C0000127A00443900085439000800093D006F
:10099C0080B400AF024B1B681846BD4680BC704744
:1009AC000000002080B500AFFFF7F2FF0246054BB8
:1009BC005B681B0A03F007030349CB5C22FA03F3C1
:1009CC00184680BD001002403C39000880B500AFCD
:1009DC00FFF7DEFF0246054B5B68DB0A03F00703FB
:1009EC000349CB5C22FA03F3184680BD0010024089
:1009FC003C39000880B485B000AF78600A4B1B68A6
:100A0C000A4AA2FB03235B0A7A6802FB03F3FB602E
:100A1C0000BFFB685A1EFA60002BF9D100BF00BF63
:100A2C001437BD4680BC704700000020D34D6210C7
:100A3C0080B586B000AF786000233B610023FB607B
:100A4C007B681B6803F00103002B7DD00023FB7532
:100A5C004F4BDB6903F08053002B0DD14C4BDB6902
:100A6C004B4A43F08053D361494BDB6903F080530D
:100A7C00BB60BB680123FB75464B1B6803F480739A
:100A8C00002B18D1434B1B68424A43F4807313600C
:100A9C00FFF7B4FB386108E0FFF7B0FB02463B6997
:100AAC00D31A642B01D903236DE03A4B1B6803F472
:100ABC008073002BF0D0364B1B6A03F44073FB6041
:100ACC00FB68002B2ED07B685B6803F44073FA68DC
:100ADC009A4227D02E4B1B6A23F44073FB602E4B9B
:100AEC0001221A602C4B00221A60294AFB681362FF
:100AFC00FB6803F00103002B14D0FFF77FFB386178
:100B0C000AE0FFF77BFB02463B69D31A41F28832BD
:100B1C00934201D9032336E01D4B1B6A03F00203F9
:100B2C00002BEED01A4B1B6A23F440727B685B6877
:100B3C00174913430B62FB7D012B05D1144BDB6969
:100B4C00134A23F08053D3617B681B6803F00203C4
:100B5C00002B08D00E4B5B6823F440427B689B68EB
:100B6C000B4913434B607B681B6803F01003002B8D
:100B7C0008D0074B5B6823F480027B68DB68044970
:100B8C0013434B60002318461837BD4680BD00BF89
:100B9C0000100240007000404004424280B48BB010
:100BAC0000AF7860396000237B6200233B6269E10F
:100BBC0001227B6A02FA03F3FB613B681B68FA694A
:100BCC001340BB61BA69FB699A4240F058813B689B
:100BDC005B689A4A93425ED0984A934275D8984A79
:100BEC00934258D0964A93426FD8964A934252D029
:100BFC00944A934269D8944A93424CD0924A934275
:100C0C0063D8924A934246D0904A93425DD8122BB5
:100C1C002AD8122B59D801A252F823F0A30C0008A1
:100C2C007D0C00088F0C0008D10C0008D70C0008B4
:100C3C00D70C0008D70C0008D70C0008D70C0008FC
:100C4C00D70C0008D70C0008D70C0008D70C0008EC
:100C5C00D70C0008D70C0008D70C0008D70C0008DC
:100C6C00850C0008990C0008794A934213D02CE0AB
:100C7C003B68DB683B6229E03B68DB6804333B6222
:100C8C0024E03B68DB6808333B621FE03B68DB68B1
:100C9C000C333B621AE03B689B68002B02D10423A7
:100CAC003B6213E03B689B68012B05D108233B6238
:100CBC007B68FA691A6109E008233B627B68FA6970
:100CCC005A6103E000233B6200E000BFBB69FF2BCD
:100CDC0001D87B6801E07B6804337B61BB69FF2B27
:100CEC0002D87B6A9B0002E07B6A083B9B003B615D
:100CFC007B691A680F213B6901FA03F3DB431A4045
:100D0C00396A3B6901FA03F31A437B691A603B6841
:100D1C005B6803F08053002B00F0B1804D4B9B6956
:100D2C004C4A43F0010393614A4B9B6903F0010366
:100D3C00BB60BB68484A7B6A9B08023352F823307D
:100D4C00FB607B6A03F003039B000F2202FA03F3A0
:100D5C00DB43FA681340FB607B68404A934213D034
:100D6C007B683F4A93420DD07B683E4A934207D042
:100D7C007B683D4A934201D1032306E0042304E03F
:100D8C00022302E0012300E000237A6A02F003024E
:100D9C0092009340FA681343FB602F497B6A9B08CF
:100DAC000233FA6841F823203B685B6803F4801334
:100DBC00002B06D02D4B9A682C49BB6913438B60D2
:100DCC0006E02A4B9A68BB69DB43284913408B60C9
:100DDC003B685B6803F40013002B06D0234BDA68E6
:100DEC002249BB691343CB6006E0204BDA68BB6930
:100DFC00DB431E491340CB603B685B6803F4003354
:100E0C00002B06D0194B5A681849BB6913434B6029
:100E1C0006E0164B5A68BB69DB43144913404B6020
:100E2C003B685B6803F48033002B21D00F4B1A68AE
:100E3C000E49BB6913430B6021E000BF0000321068
:100E4C0000003110000022100000211000001210D0
:100E5C000000111000100240000001400008014089
:100E6C00000C01400010014000140140000401403E
:100E7C000B4B1A68BB69DB43094913400B607B6A57
:100E8C0001337B623B681A687B6A22FA03F3002BFE
:100E9C007FF48EAE00BF00BF2C37BD4680BC7047C0
:100EAC000004014080B483B000AF78600B467B80B7
:100EBC0013467B707B78002B03D07A887B681A6191
:100ECC0003E07B881A047B681A6100BF0C37BD46AF
:100EDC0080BC704780B485B000AF78600023FB60A5
:100EEC007B68002B01D1012343E07B681B681A4609
:100EFC00224B1344224AA2FB03231B099A007B6852
:100F0C001A647B681F4ADA637B68022283F821200B
:100F1C007B681B681B68FB60FB6823F47F5323F022
:100F2C003003FB607B685A687B689B681A437B685C
:100F3C00DB681A437B681B691A437B685B691A433D
:100F4C007B689B691A437B68DB691343FA6813431C
:100F5C00FB607B681B68FA681A607B6800229A63E6
:100F6C007B68012283F821207B68002283F82020F3
:100F7C00002318461437BD4680BC7047F8FFFDBFF0
:100F8C00CDCCCCCC0000024080B485B000AF7860F2
:100F9C000023FB737B6893F82130DBB2022B08D063
:100FAC007B6804229A637B68002283F8202001234B
:100FBC0020E07B681B681A687B681B6822F00E02B5
:100FCC001A607B681B681A687B681B6822F0010238
:100FDC001A607B681A6C7B68DB6B012101FA02F2E8
:100FEC005A607B68012283F821207B68002283F8F9
:100FFC002020FB7B18461437BD4680BC7047000090
:10100C0080B584B000AF78600023FB737B6893F8E5
:10101C002130DBB2022B05D07B6804229A630123BA
:10102C00FB7351E07B681B681A687B681B6822F0B5
:10103C000E021A607B681B681A687B681B6822F0BA
:10104C0001021A607B681B68224A934229D07B6894
:10105C001B68214A934222D07B681B681F4A93422B
:10106C001AD07B681B681E4A934212D07B681B689F
:10107C001C4A93420AD07B681B681B4A934202D1DC
:10108C004FF480130EE04FF080730BE04FF480337D
:10109C0008E04FF4805305E04FF4807302E0102316
:1010AC0000E00123114A53607B68012283F8212060
:1010BC007B68002283F820207B685B6B002B03D0BD
:1010CC007B685B6B78689847FB7B18461037BD468E
:1010DC0080BD00BF080002401C00024030000240EE
:1010EC0044000240580002406C00024000000240E4
:1010FC0080B584B000AF78607B68DB6B1B68FB60ED
:10110C007B681B681B68BB607B681B6C04229A4065
:10111C00FB681340002B4FD0BB6803F00403002B7B
:10112C004AD07B681B681B6803F02003002B07D197
:10113C007B681B681A687B681B6822F004021A60C3
:10114C007B681B68664A934229D07B681B68654A9A
:10115C00934222D07B681B68634A93421AD07B6807
:10116C001B68624A934212D07B681B68604A9342A8
:10117C000AD07B681B685F4A934202D14FF480030C
:10118C000EE04FF080630BE04FF4802308E04FF447
:10119C00804305E04FF4806302E0402300E0042329
:1011AC00554A53607B68DB6A002B00F094807B68A7
:1011BC00DB6A786898478EE07B681B6C02229A4049
:1011CC00FB681340002B56D0BB6803F00203002BC6
:1011DC0051D07B681B681B6803F02003002B0BD1DC
:1011EC007B681B681A687B681B6822F00A021A600D
:1011FC007B68012283F821207B681B68384A934264
:10120C0029D07B681B68374A934222D07B681B68C5
:10121C00354A93421AD07B681B68344A934212D0E9
:10122C007B681B68324A93420AD07B681B68314A40
:10123C00934202D14FF400130EE04FF000730BE019
:10124C004FF4003308E04FF4005305E04FF4007303
:10125C0002E0202300E00223274A53607B6800222F
:10126C0083F820207B689B6A002B34D07B689B6AB8
:10127C00786898472FE07B681B6C08229A40FB68C3
:10128C001340002B28D0BB6803F00803002B23D09D
:10129C007B681B681A687B681B6822F00E021A6058
:1012AC007B681A6C7B68DB6B012101FA02F25A60D5
:1012BC007B6801229A637B68012283F821207B687A
:1012CC00002283F820207B681B6B002B04D07B68EA
:1012DC001B6B7868984700BF00BF1037BD4680BDB8
:1012EC00080002401C000240300002404400024052
:1012FC00580002406C0002400000024080B485B0EF
:10130C0000AF78607B6803F00703FB600C4BDB6875
:10131C00BB60BA684FF6FF031340BB60FB681A0250
:10132C00BB68134343F0BF6343F40033BB60044A10
:10133C00BB68D36000BF1437BD4680BC704700BF8C
:10134C0000ED00E080B400AF044BDB681B0A03F037
:10135C0007031846BD4680BC704700BF00ED00E097
:10136C0080B483B000AF0346FB7197F90730002BB4
:10137C000BDBFB7903F01F02064997F907305B0979
:10138C00012000FA02F241F8232000BF0C37BD46C1
:10139C0080BC704700E100E080B483B000AF03462E
:1013AC003960FB7197F90730002B0ADB3B68DAB226
:1013BC000C4997F907301201D2B20B4483F8002381
:1013CC000AE03B68DAB20849FB7903F00F03043BEF
:1013DC001201D2B20B441A7600BF0C37BD4680BC4A
:1013EC00704700BF00E100E000ED00E080B489B080
:1013FC0000AFF860B9607A60FB6803F00703FB612B
:10140C00FB69C3F10703042B28BF0423BB61FB69F1
:10141C000433062B02D9FB69033B00E000237B61FC
:10142C004FF0FF32BB6902FA03F3DA43BB681A4090
:10143C007B699A404FF0FF317B6901FA03F3D94382
:10144C007B680B40134318462437BD4680BC70475D
:10145C0080B582B000AF78607B68013BB3F1807FD0
:10146C0001D301230FE00A4A7B68013B53600F2133
:10147C004FF0FF30FFF790FF054B00229A60044BB2
:10148C0007221A60002318460837BD4680BD00BFEE
:10149C0010E000E080B582B000AF78607868FFF7AC
:1014AC002DFF00BF0837BD4680BD80B586B000AFAC
:1014BC000346B9607A60FB7300237B61FFF742FF40
:1014CC0078617A68B9687869FFF790FF024697F9F6
:1014DC000F3011461846FFF75FFF00BF1837BD46A7
:1014EC0080BD80B582B000AF0346FB7197F9073021
:1014FC001846FFF735FF00BF0837BD4680BD80B5E5
:10150C0082B000AF78607868FFF7A2FF03461846F8
:10151C000837BD4680BD80B582B000AF78607B686F
:10152C00002B01D1012342E07B6893F84130DBB200
:10153C00002B06D17B68002283F84020786801F0EC
:10154C00A3FA7B68242283F841207B681B68DA6845
:10155C007B681B6822F40052DA60786800F0B8FDF2
:10156C007B681B681A697B681B6822F490421A61BD
:10157C007B681B685A697B681B6822F02A025A61D7
:10158C007B681B68DA687B681B6842F40052DA607F
:10159C007B6800225A647B68202283F841207B6898
:1015AC00202283F842207B6800225A6300231846CD
:1015BC000837BD4680BD80B58AB002AFF860B9600F
:1015CC003B601346FB8000237B61FB6893F8413042
:1015DC00DBB2202B75D1BB68002B02D0FB88002B13
:1015EC0001D101236EE0FB6800225A64FB682122C2
:1015FC0083F84120FEF702FE7861FB68FA889A8432
:10160C00FB68FA88DA84FB689B68B3F5805F08D1C5
:10161C00FB681B69002B04D10023FB61BB68BB6119
:10162C0003E0BB68FB610023BB612EE03B680093C9
:10163C007B6900228021F86800F01DFB0346002B1B
:10164C0005D0FB68202283F8412003233AE0FB6994
:10165C00002B0BD1BB691B881A46FB681B68C2F3B5
:10166C0008025A60BB690233BB6107E0FB691A7858
:10167C00FB681B685A60FB690133FB61FB68DB8C00
:10168C009BB2013B9AB2FB68DA84FB68DB8C9BB2A1
:10169C00002BCBD13B6800937B6900224021F8687A
:1016AC0000F0E9FA0346002B05D0FB68202283F8F2
:1016BC004120032306E0FB68202283F8412000230D
:1016CC0000E0022318462037BD4680BD80B584B0AB
:1016DC0000AFF860B9601346FB80FB6893F84230AA
:1016EC00DBB2202B12D1BB68002B02D0FB88002B65
:1016FC0001D101230BE0FB6800221A63FB881A4618
:10170C00B968F86800F010FB034600E002231846A5
:10171C001037BD4680BD000080B5BAB000AF786010
:10172C007B681B681B68C7F8E4307B681B68DB6848
:10173C00C7F8E0307B681B685B69C7F8DC300023B6
:10174C00C7F8D8300023C7F8D430D7F8E43003F00A
:10175C000F03C7F8D830D7F8D830002B0FD1D7F8F3
:10176C00E43003F02003002B09D0D7F8E03003F06D
:10177C002003002B03D0786800F0ECFB5BE2D7F879
:10178C00D830002B00F0DE80D7F8DC3003F00103FA
:10179C00002B06D1D7F8E03003F49073002B00F047
:1017AC00D180D7F8E43003F00103002B0BD0D7F82D
:1017BC00E03003F48073002B05D07B685B6C43F046
:1017CC0001027B685A64D7F8E43003F00403002B61
:1017DC000BD0D7F8DC3003F00103002B05D07B686D
:1017EC005B6C43F002027B685A64D7F8E43003F078
:1017FC000203002B0BD0D7F8DC3003F00103002BD5
:10180C0005D07B685B6C43F004027B685A64D7F8A4
:10181C00E43003F00803002B11D0D7F8E03003F0CC
:10182C002003002B05D1D7F8DC3003F00103002B8B
:10183C0005D07B685B6C43F008027B685A647B685C
:10184C005B6C002B00F0F281D7F8E43003F020033E
:10185C00002B08D0D7F8E03003F02003002B02D087
:10186C00786800F077FB7B681B685B6903F04003CA
:10187C00002B14BF01230023DBB2C7F8D4307B68E4
:10188C005B6C03F00803002B03D1D7F8D430002B8A
:10189C004FD0786800F081FA7B681B685B6903F0B5
:1018AC004003002B41D07B681B681433C7F89C3075
:1018BC00D7F89C3053E8003FC7F89830D7F89830E9
:1018CC0023F04003C7F8D0307B681B681433D7F87B
:1018DC00D020C7F8A820C7F8A430D7F8A410D7F8A0
:1018EC00A82041E80023C7F8A030D7F8A030002B7F
:1018FC00D9D17B68DB6B002B13D07B68DB6B7E4A0A
:10190C005A637B68DB6B1846FFF77AFB0346002BA8
:10191C0016D07B68DB6B5B6B7A68D26B1046984792
:10192C000EE0786800F093F90AE0786800F08FF91F
:10193C0006E0786800F08BF97B6800225A6475E148
:10194C0000BF73E17B681B6B012B40F04F81D7F814
:10195C00E43003F01003002B00F04881D7F8E0309E
:10196C0003F01003002B00F041810023BB607B6867
:10197C001B681B68BB607B681B685B68BB60BB68D3
:10198C007B681B685B6903F04003002B00F0B6809A
:10199C007B68DB6B1B685B68A7F8BE30B7F8BE30A2
:1019AC00002B00F045817B689B8DB7F8BE209A42D6
:1019BC0080F03E817B68B7F8BE20DA857B68DB6BF4
:1019CC009B69202B00F088807B681B680C33C7F860
:1019DC008830D7F8883053E8003FC7F88430D7F800
:1019EC00843023F48073C7F8B8307B681B680C33E1
:1019FC00D7F8B820C7F89420C7F89030D7F89010D3
:101A0C00D7F8942041E80023C7F88C30D7F88C30F5
:101A1C00002BD9D17B681B6814337B677B6F53E831
:101A2C00003F3B673B6F23F00103C7F8B4307B6882
:101A3C001B681433D7F8B420C7F88020FB67F96F04
:101A4C00D7F8802041E80023BB67BB6F002BE1D1A6
:101A5C007B681B6814333B663B6E53E8003FFB65A9
:101A6C00FB6D23F04003C7F8B0307B681B68143360
:101A7C00D7F8B020FA66BB66B96EFA6E41E800235F
:101A8C007B667B6E002BE3D17B68202283F842209F
:101A9C007B6800221A637B681B680C33FB64FB6C4D
:101AAC0053E8003FBB64BB6C23F01003C7F8AC30A9
:101ABC007B681B680C33D7F8AC20BA657B65796DF5
:101ACC00BA6D41E800233B653B6D002BE3D17B688D
:101ADC00DB6B1846FFF758FA7B6802225A637B6867
:101AEC009A8D7B68DB8D9BB2D31A9BB219467868B2
:101AFC0000F0B6F89CE000BF6B1E00087B689A8D66
:101B0C007B68DB8D9BB2D31AA7F8CE307B68DB8D5C
:101B1C009BB2002B00F08E80B7F8CE30002B00F07B
:101B2C0089807B681B680C33BB63BB6B53E8003F3D
:101B3C007B637B6B23F49073C7F8C8307B681B689E
:101B4C000C33D7F8C8207A643B64396C7A6C41E862
:101B5C000023FB63FB6B002BE3D17B681B68143306
:101B6C007B627B6A53E8003F3B623B6A23F00103D4
:101B7C00C7F8C4307B681B681433D7F8C4203A63A9
:101B8C00FB62F96A3A6B41E80023BB62BB6A002B2B
:101B9C00E3D17B68202283F842207B6800221A6301
:101BAC007B681B680C333B613B6953E8003FFB606F
:101BBC00FB6823F01003C7F8C0307B681B680C333C
:101BCC00D7F8C020FA61BB61B969FA6941E8002312
:101BDC007B617B69002BE3D17B6802225A63B7F8E7
:101BEC00CE301946786800F03BF823E0D7F8E430A3
:101BFC0003F08003002B09D0D7F8E03003F080030A
:101C0C00002B03D0786800F03EF914E0D7F8E430EC
:101C1C0003F04003002B0ED0D7F8E03003F0400364
:101C2C00002B08D0786800F07DF904E000BF02E0DA
:101C3C0000BF00E000BFE837BD4680BD80B483B074
:101C4C0000AF786000BF0C37BD4680BC704780B4D5
:101C5C0083B000AF786000BF0C37BD4680BC7047C6
:101C6C0080B483B000AF78600B467B8000BF0C372C
:101C7C00BD4680BC704780B586B000AFF860B960D7
:101C8C003B601346FB713BE03B6AB3F1FF3F37D03F
:101C9C00FEF7B4FA02463B68D31A3A6A9A4202D368
:101CAC003B6A002B01D103233AE0FB681B68DB681D
:101CBC0003F00403002B23D0BB68802B20D0BB681F
:101CCC00402B1DD0FB681B681B6803F00803082B16
:101CDC0016D100237B61FB681B681B687B61FB686A
:101CEC001B685B687B617B69F86800F056F8FB68E1
:101CFC0008225A64FB68002283F8402001230FE07D
:101D0C00FB681B681A68BB681340BA689A420CBF20
:101D1C0001230023DBB21A46FB799A42B4D000238C
:101D2C0018461837BD4680BD80B485B000AFF8604A
:101D3C00B9601346FB80FB68BA689A62FB68FA8844
:101D4C009A85FB68FA88DA85FB6800225A64FB687E
:101D5C00222283F84220FB681B69002B07D0FB680A
:101D6C001B68DA68FB681B6842F48072DA60FB68F7
:101D7C001B685A69FB681B6842F001025A61FB68D8
:101D8C001B68DA68FB681B6842F02002DA600023EB
:101D9C0018461437BD4680BC704780B495B000AF70
:101DAC0078607B681B680C337B637B6B53E8003F6C
:101DBC003B633B6B23F49073FB647B681B680C33B5
:101DCC00FA6C3A64FB63F96B3A6C41E80023BB6331
:101DDC00BB6B002BE5D17B681B6814333B623B6A01
:101DEC0053E8003FFB61FB6923F00103BB647B6894
:101DFC001B681433BA6CFA62BB62B96AFA6A41E8BE
:101E0C0000237B627B6A002BE5D17B681B6B012B6B
:101E1C0019D17B681B680C33FB60FB6853E8003FEF
:101E2C00BB60BB6823F010037B647B681B680C33BE
:101E3C007A6CBA617B617969BA6941E800233B61CC
:101E4C003B69002BE5D17B68202283F842207B681C
:101E5C0000221A6300BF5437BD4680BC704780B562
:101E6C0084B000AF78607B685B6AFB60FB68002223
:101E7C00DA85FB680022DA84F868FFF7E8FE00BF19
:101E8C001037BD4680BD80B485B000AF78607B68EC
:101E9C0093F84130DBB2212B3ED17B689B68B3F5C4
:101EAC00805F14D17B681B69002B10D17B681B6A87
:101EBC00FB60FB681B881A467B681B68C2F3080230
:101ECC005A607B681B6A9A1C7B681A6208E07B6804
:101EDC001B6A591C7A6811621A787B681B685A60F5
:101EEC007B68DB8C9BB2013B9BB27A681946D18430
:101EFC00002B0FD17B681B68DA687B681B6822F0AB
:101F0C008002DA607B681B68DA687B681B6842F0C9
:101F1C004002DA60002300E0022318461437BD4665
:101F2C0080BC704780B582B000AF78607B681B685E
:101F3C00DA687B681B6822F04002DA607B6820223A
:101F4C0083F841207868FFF779FE0023184608379C
:101F5C00BD4680BD80B58CB000AF78607B6893F8CF
:101F6C004230DBB2222B40F0AE807B689B68B3F52D
:101F7C00805F17D17B681B69002B13D10023FB6298
:101F8C007B689B6ABB627B681B685B689BB2C3F314
:101F9C0008039AB2BB6A1A807B689B6A9A1C7B689E
:101FAC009A6226E07B689B6AFB620023BB627B68BB
:101FBC009B68B3F5805F07D07B689B68002B0AD1C8
:101FCC007B681B69002B06D17B681B685B68DAB2E7
:101FDC00FB6A1A7008E07B681B685B68DBB203F075
:101FEC007F03DAB2FB6A1A707B689B6A5A1C7B68A7
:101FFC009A627B68DB8D9BB2013B9BB27A68194677
:10200C00D185002B5DD17B681B68DA687B681B6807
:10201C0022F02002DA607B681B68DA687B681B6838
:10202C0022F48072DA607B681B685A697B681B68D3
:10203C0022F001025A617B68202283F842207B68DF
:10204C0000225A637B681B6B012B35D17B68002205
:10205C001A637B681B680C337B617B6953E8003F18
:10206C003B613B6923F010037B627B681B680C337C
:10207C007A6A3A62FB61F9693A6A41E80023BB610A
:10208C00BB69002BE5D17B681B681B6803F0100350
:10209C00102B0AD10023FB607B681B681B68FB605C
:1020AC007B681B685B68FB60FB687B689B8D1946D3
:1020BC007868FFF7D5FD02E0786800F0F1FB0023AB
:1020CC0002E0002300E0022318463037BD4680BDF5
:1020DC0080B584B000AF78607B681B681B6923F403
:1020EC0040517B68DA687B681B680A431A617B681D
:1020FC009A687B681B691A437B685B691343BB60F6
:10210C007B681B68DB6823F4B05323F00C037A68FC
:10211C001268B9680B43D3607B681B685B6923F456
:10212C0040717B689A697B681B680A435A617B68BB
:10213C001B682C4A934203D1FEF748FCF86002E07E
:10214C00FEF730FCF860FA6813469B0013449A00C3
:10215C001A447B685B689B00B2FBF3F3224AA2FB38
:10216C0003235B091901FA6813469B0013449A0078
:10217C001A447B685B689B00B2FBF3F21A4BA3FB1F
:10218C0002035B09642000FB03F3D31A1B013233F7
:10219C00154AA2FB03235B0903F0F0031944FA6808
:1021AC0013469B0013449A001A447B685B689B009F
:1021BC00B2FBF3F20C4BA3FB02035B09642000FBA4
:1021CC0003F3D31A1B013233074AA2FB03235B0927
:1021DC0003F00F027B681B680A449A6000BF10373B
:1021EC00BD4680BD003801401F85EB5180B58AB0DB
:1021FC0000AFFDF7ABFF00F0E5F900F093FA00F04B
:10220C003DFA00F065FA0122AA49AB48FFF75EFAE5
:10221C000122AA49AA48FFF759FA07F1080300223C
:10222C001A605A609A60DA604FF4E043BB60012395
:10223C00FB6000233B6102237B6107F10803194615
:10224C00A048FEF7ABFC00224FF4E0419D48FEF79E
:10225C0029FE9D4800F0AEFE9C4800F0ABFE9C4B66
:10226C0001221A70FDF7CAFF386200237B6230BF6F
:10227C00FDF7C4FFF861964B1B78082B00F0AE807D
:10228C00934B1B78002B09D0914B1B78052B02D15B
:10229C004FF4FA5304E040F6C41301E042F2107319
:1022AC00BB61FA697B6AD31ABA699A4200F29680CA
:1022BC00FB697B62864B1B78072B72D801A252F804
:1022CC0023F000BFF1220008F922000813230008B4
:1022DC002D23000847230008612300087B230008F6
:1022EC00952300087A4B01221A705EE0794800F0C1
:1022FC0061FE6423032278496F48FFF75CF9744B45
:10230C0002221A7051E0754800F054FE6423212219
:10231C0073496948FFF74FF96D4B03221A7044E07B
:10232C00704800F047FE642321226F496248FFF792
:10233C0042F9674B04221A7037E06C4800F03AFE01
:10234C0064231F226A495C48FFF735F9604B05226C
:10235C001A702AE0674800F02DFE642306226649B5
:10236C005548FFF728F95A4B08221A701DE06348AC
:10237C0000F020FE6423042261494F48FFF71BF94B
:10238C00534B07221A7010E05E4800F013FE6423D2
:10239C000C225D494848FFF70EF94D4B08221A7084
:1023AC0003E04B4B08221A7000BF17E0574B1B88F9
:1023BC001A46574BD118012301224148FFF7FBF86D
:1023CC000346002B12D1514B1B8801335A42DBB20E
:1023DC00D2B258BF53429AB24C4B1A804B4B1A880C
:1023EC004C4B1B889BB29A42E0D100E000BF4A4B99
:1023FC001B78DBB2002B00F0C580474B00221A7013
:10240C004649474800F0BCFE0346002B06D145491F
:10241C00434800F0B5FE0346002B0FD001224FF4C9
:10242C0080512848FEF73EFD00224FF4C04125485C
:10243C00FEF738FD3C4800F0BDFD9AE03B493848BA
:10244C0000F09EFE0346002B06D13949344800F0BB
:10245C0097FE0346002B0FD001224FF48041194800
:10246C00FEF720FD00224FF440511648FEF71AFDEE
:10247C00304800F09FFD7CE02F49294800F080FE99
:10248C000346002B06D12D49254800F079FE034662
:10249C00002B57D001224FF400510A48FEF702FDE1
:1024AC0000224FF4A0410748FEF7FCFC244800F042
:1024BC0081FD5EE018010020880000201901002039
:1024CC00D0000020000C0140103700083037000805
:1024DC002002002044370008503700085437000809
:1024EC00643700088837000898370008B8370008A8
:1024FC00C8370008E8370008F4370008FC37000834
:10250C00043800080C3800081C3800081E02002093
:10251C001C0100201C020020260300202838000883
:10252C0024020020343800084438000850380008D1
:10253C0060380008703800087C3800088C380008B7
:10254C009C3800081849194800F01AFE0346002B65
:10255C0006D11749154800F013FE0346002B08D08E
:10256C0000224FF4E0411348FEF79CFC124800F0A7
:10257C0021FD124B00221A804FF4807200210B486F
:10258C0000F0F6FD0D4B1B88002B3FF470AE0C4B8E
:10259C001B68FA69D31A40F6B83293427FF667AEDD
:1025AC00064B00221A8062E6A8380008240200209C
:1025BC00B4380008000C0140C43800082403002083
:1025CC002803002080B594B000AF07F1280328221F
:1025DC000021184600F0CCFD07F1140300221A600C
:1025EC005A609A60DA601A613B1D00221A605A60C8
:1025FC009A60DA600123BB624FF48033FB620023E4
:10260C003B630123BB6302237B644FF48033BB64C5
:10261C004FF4E013FB6407F128031846FDF7F8FDAF
:10262C000346002B01D000F0ADF90F237B61022390
:10263C00BB610023FB614FF480633B6200237B6230
:10264C0007F1140302211846FEF764F80346002B29
:10265C0001D000F097F902237B604FF40043FB603C
:10266C003B1D1846FEF7E4F90346002B01D000F0A1
:10267C0089F900BF5037BD4680BD000080B500AF62
:10268C00114B124A1A60104B4FF4E1325A600E4B48
:10269C0000229A600C4B0022DA600B4B00221A616C
:1026AC00094B0C225A61084B00229A61064B0022FE
:1026BC00DA610548FEF72FFF0346002B01D000F02E
:1026CC0061F900BF80BD00BF8800002000380140C8
:1026DC0080B500AF114B124A1A60104B4FF4E13227
:1026EC005A600E4B00229A600C4B0022DA600B4BA6
:1026FC0000221A61094B0C225A61084B00229A6184
:10270C00064B0022DA610548FEF705FF0346002B55
:10271C0001D000F037F900BF80BD00BFD000002011
:10272C000048004080B588B000AF07F110030022CC
:10273C001A605A609A60DA604A4B9B69494A43F0C6
:10274C0010039361474B9B6903F01003FB60FB681C
:10275C00444B9B69434A43F020039361414B9B6973
:10276C0003F02003BB60BB683E4B9B693D4A43F0C2
:10277C00040393613B4B9B6903F004037B607B6810
:10278C00384B9B69374A43F008039361354B9B697F
:10279C0003F008033B603B6804233B6101237B612E
:1027AC000123BB610223FB6107F1100319462E487C
:1027BC00FEF7F4F9012204212B48FEF773FB4FF4CA
:1027CC0000733B6102237B610023BB610123FB612E
:1027DC0007F1100319462448FEF7E0F94FF4806323
:1027EC003B6100237B610123BB6107F11003194698
:1027FC001D48FEF7D3F949F6FB133B6103237B61BC
:10280C000023BB6107F1100319461748FEF7C6F900
:10281C004FF23B333B6103237B610023BB6107F128
:10282C00100319461148FEF7B9F94FF400533B61F8
:10283C0003237B610023BB6107F1100319460C488D
:10284C00FEF7ACF903233B6103237B610023BB61DF
:10285C0007F1100319460748FEF7A0F900BF20370F
:10286C00BD4680BD0010024000080140000C014034
:10287C00001001400014014080B584B000AFF86036
:10288C00B9607A607B689AB26423B9680348FEF732
:10289C0092FE7B6818461037BD4680BDD0000020E4
:1028AC0080B584B000AF78607B681B68284A93427F
:1028BC003AD1284B1B889BB201335A42DBB2D2B2BD
:1028CC0058BF5342FB81244B1B88FA899A420AD089
:1028DC00204B1B889BB21A46204B1978204B9954DD
:1028EC001C4AFB8913801F4B1B88FF2B0AD81D4BDE
:1028FC001B885A1C91B21B4A11801A46174B197827
:10290C00194B9954154B1B787D2B02D1174B012277
:10291C001A70FDF773FC0346154A136001220F4928
:10292C001448FEF7D3FE0FE07B681B68124A9342F3
:10293C000AD16423012211490E48FEF73CFE012204
:10294C000E490F48FEF7C2FE00BF1037BD4680BDD2
:10295C00003801401C0200201E020020180100203B
:10296C001C01002024030020240200202603002048
:10297C002803002088000020004800401901002096
:10298C00D000002080B400AF72B600BF00BFFDE7DE
:10299C0080B400AF00BFFDE780B400AF00BFFDE71F
:1029AC0080B400AF00BFFDE780B400AF00BFFDE70F
:1029BC0080B400AF00BFFDE780B400AF00BFBD46E0
:1029CC0080BC704780B400AF00BFBD4680BC704770
:1029DC0080B400AF00BFBD4680BC704780B500AF6F
:1029EC00FDF7FAFB00BF80BD80B500AF0248FEF7D3
:1029FC0093FE00BF80BD00BF8800002080B500AFF3
:102A0C000248FEF789FE00BF80BD00BFD000002049
:102A1C0080B500AF0248FEF76BFB00BF80BD00BF66
:102A2C002C03002080B485B000AF154B9B69144A71
:102A3C0043F001039361124B9B6903F00103BB60EC
:102A4C00BB680F4BDB690E4A43F08053D3610C4BD0
:102A5C00DB6903F080537B607B680A4B5B68FB602F
:102A6C00FB6823F0E063FB60FB6843F00073FB60E2
:102A7C00044AFB68536000BF1437BD4680BC7047E6
:102A8C00001002400000014080B58CB000AF7860AF
:102A9C0007F1200300221A605A609A60DA607B68A2
:102AAC001B685B4A934270D15A4B9B69594A43F459
:102ABC0080439361574B9B6903F48043FB61FB6933
:102ACC00544B5B69534A43F001035361514B5B69AF
:102ADC0003F00103BB61BB694E4B9B694D4A43F04C
:102AEC00040393614B4B9B6903F004037B617B698B
:102AFC004FF400733B6202237B620323FB6207F1FA
:102B0C00200319464448FEF749F84FF480633B62B2
:102B1C0000237B620023BB6207F1200319463E4869
:102B2C00FEF73CF83D4B3E4A1A603C4B00225A6083
:102B3C003A4B00229A60394B8022DA60374B0022E4
:102B4C001A61364B00225A61344B00229A61334B86
:102B5C004FF40052DA613148FEF7BCF97B682F4A1A
:102B6C00DA632E4A7B685362002200212520FEF78F
:102B7C009CFC2520FEF7B5FC002200210F20FEF75F
:102B8C0094FC0F20FEF7ADFC3EE07B681B68254AE9
:102B9C00934239D11F4BDB691E4A43F48023D36126
:102BAC001C4BDB6903F480233B613B69194B9B692C
:102BBC00184A43F008039361164B9B6903F0080312
:102BCC00FB60FB684FF480633B6202237B62032350
:102BDC00FB6207F1200319461348FDF7DFFF4FF4A2
:102BEC0000633B6200237B620023BB6207F120037E
:102BFC0019460D48FDF7D2FF002200212720FEF7D1
:102C0C0054FC2720FEF76DFC00BF3037BD4680BD5D
:102C1C000038014000100240000801402C03002045
:102C2C005800024000480040000C014080B586B0BE
:102C3C0000AF7860144A154BD31A7B617B693B61FA
:102C4C00134B1B68002B02D1114B124A1A60104B0C
:102C5C001A687B6813443A699A4207D200F0ECFA7E
:102C6C0003460C221A604FF0FF3309E0084B1B6837
:102C7C00FB60074B1A687B681344054A1360FB68BA
:102C8C0018461837BD4680BD0050002000040000D7
:102C9C0070030020C004002080B586B000AFF8603F
:102CAC00B9607A6000237B610AE0AFF300800146D3
:102CBC00BB685A1CBA60CAB21A707B6901337B615B
:102CCC007A697B689A42F0DB7B6818461837BD46F8
:102CDC0080BD80B483B000AF78604FF0FF331846EE
:102CEC000C37BD4680BC704780B483B000AF7860B1
:102CFC0039603B684FF400525A60002318460C3779
:102D0C00BD4680BC704780B483B000AF78600123AF
:102D1C0018460C37BD4680BC704780B485B000AFF8
:102D2C00F860B9607A60002318461437BD4680BC41
:102D3C0070470000FDF704FA0B480C490C4A0023BD
:102D4C0002E0D458C4500433C4188C42F9D3094A55
:102D5C00094C002301E013600432A242FBD300F0C3
:102D6C0071FAFFF743FA704700000020680000205A
:102D7C006039000868000020C0040020FEE7000055
:102D8C00002310B50446C0E90033C0E90433836066
:102D9C0081814366C2818361194608225C3000F050
:102DAC00E7F90D4B246263620C4BA3620C4BE3629C
:102DBC000C4B23630C4B9C4206D003F168029442EB
:102DCC0002D0D0339C4205D104F15800BDE810402C
:102DDC0000F05CBA10BD00BFD12F0008F32F000823
:102DEC002B3000085130000874030020024A0349BC
:102DFC00034800F06BB800BF0C00002089350008B8
:102E0C001C00002041680C4B10B59942044601D0BF
:102E1C0000F0B4FBA168094B994202D0204600F0A7
:102E2C00ADFBE168064B994204D02046BDE810404A
:102E3C0000F0A4BB10BD00BF74030020DC03002015
:102E4C00440400200C4B0D4A10B504211A600C48A8
:102E5C000022FFF795FF0A4B01221C46092103F1C2
:102E6C006800FFF78DFF04F1D0000222BDE810408E
:102E7C001221FFF785BF00BFAC040020F92D00081C
:102E8C0074030020014800F002BA00BFB504002012
:102E9C00014800F0FDB900BFB504002010B5044690
:102EAC00FFF7F0FF236A1BB1BDE81040FFF7F0BF3E
:102EBC00044B2362044B1B68002BF5D1FFF7C2FFB8
:102ECC00F2E700BF112E0008AC0400202DE9F843F6
:102EDC000746884614460026D4E90195B9F1010944
:102EEC0005D52468002CF7D13046BDE8F883AB89B2
:102EFC00012B07D9B5F90E30013303D029463846DA
:102F0C00C04706436835E9E7036A70B505460E46C7
:102F1C0084680BB9FFF7C2FF636EDB0705D4A38986
:102F2C00980502D4A06D00F0B2F9A389190702D557
:102F3C002369002B35D12146284600F0C5F880B313
:102F4C004FF0FF35636EDA0705D4A3899B0502D4D5
:102F5C00A06D00F09DF9284670BD002B04DAA26923
:102F6C00934217DB0A2915D023685A1C226019706A
:102F7C00A36816F8011F013BA3600029EDD1002BBB
:102F8C0011DA22460A21284600F060F80130D7D029
:102F9C000A25D7E72246284600F058F80130E7D139
:102FAC00CEE7013EE4E723685A1C22600A221A701D
:102FBC00EEE70000024B01461868FFF7A5BF00BF03
:102FCC001800002010B50C46B1F90E1000F010F9E5
:102FDC000028ABBF636DA3891B1823F48053ACBFCF
:102FEC006365A38110BD2DE9F0411F468B89054611
:102FFC00DB050C46164605D502230022B1F90E104E
:10300C0000F0E4F8A389324623F48053A3812846C8
:10301C003B46B4F90E10BDE8F04100F0FBB810B51A
:10302C000C46B1F90E1000F0D1F8B4F90C30421C7A
:10303C000BBF23F4805343F48053A381A38118BFA7
:10304C00606510BDB1F90E1000F0B0B8F8B50E46C1
:10305C001446054618B1036A0BB9FFF71FFFA369A5
:10306C00A360A3891A0701D5236943B921462846D1
:10307C0000F02AF818B14FF0FF373846F8BD236836
:10308C002269F6B2981A63693746834205DC2146F9
:10309C00284600F073FA0028EDD1A368013BA36029
:1030AC0023685A1C22601E706269431C9A4204D029
:1030BC00A389DB07E1D50A2EDFD12146284600F093
:1030CC005DFA0028D9D0D6E738B5284B05461868E4
:1030DC000C4618B1036A0BB9FFF7E0FEB4F90C30DB
:1030EC001A0721D4D80607D409222A6043F04003DA
:1030FC004FF0FF30A38130E0590712D5616B41B11D
:10310C0004F14403994202D0284600F0C3F800238E
:10311C0063630022B4F90C306260226923F024034B
:10312C00226043F00803A38122693AB99A0501D5BC
:10313C00180603D52146284600F06CFAB4F90C3079
:10314C0013F001020AD00022A26062695242A2610D
:10315C00226942B913F08000C8D138BD990758BF15
:10316C006269A260F4E70020F7E700BF18000020B6
:10317C0003460244934200D1704703F8011BF9E760
:10318C000A7870B56AB970BD9A4209D10C460546E9
:10319C0014F8013F002BF6D015F8016F9E42F7D0C2
:1031AC0001300378002BEFD11846ECE738B500233B
:1031BC00054D044608462B60FFF78BFD431C02D1DE
:1031CC002B6803B1236038BDB004002038B5044629
:1031DC00084611460022054D2A601A46FFF79DFD50
:1031EC00431C02D12B6803B1236038BDB00400200E
:1031FC0038B50446084611460022054D2A601A4689
:10320C00FFF74AFD431C02D12B6803B1236038BD84
:10321C00B004002038B50446084611460022054D7E
:10322C002A601A46FFF728FB431C02D12B6803B116
:10323C00236038BDB0040020014B1868704700BFF4
:10324C001800002070B500260C4D0D4B5B1B9C101C
:10325C00A64209D1002600F049FA0A4D0A4B5B1B25
:10326C009C10A64205D170BD55F8043B9847013619
:10327C00EEE755F8043B98470136F2E75839000859
:10328C0058390008583900085C39000870477047F5
:10329C007047000038B50546002940D051F8043C71
:1032AC000C1F002BB8BFE41800F0DEF81C4A1368A2
:1032BC0033B9636014602846BDE8384000F0DAB8D2
:1032CC00A34208D9206821188B4201BF19685B689A
:1032DC0009182160EDE71A465B680BB1A342FAD9D5
:1032EC0011685018A0420BD1206801445018834239
:1032FC001160E0D118685B68084410605360DAE72D
:10330C0002D90C232B60D6E7206821188B4201BF11
:10331C0019685B680918216063605460CBE738BD9D
:10332C00BC04002070B50F4E0C463168054611B92F
:10333C0000F0CCF930602146284600F0C7F9431C58
:10334C0003D14FF0FF34204670BDC41C24F003049D
:10335C00A042F8D0211A284600F0B8F90130F2D179
:10336C00EFE700BFB80400202DE9F843CD1C25F091
:10337C00030508350C2D38BF0C25002D064601DB46
:10338C00A94204D90C2333600020BDE8F883DFF890
:10339C00D48000F069F8D8F800301C4644BB2946AC
:1033AC003046FFF7BFFF431C044658D1D8F8004005
:1033BC002746002F43D1002C4BD02368394630468A
:1033CC0004EB030900F082F9814542D121683046B3
:1033DC006D1A2946FFF7A6FF01303AD023682B441B
:1033EC002360D8F800305A6862BBC8F800700FE050
:1033FC002268521B20D40B2A17D96119A3422560CD
:10340C0018BF5960636808BFC8F8001062514B6060
:10341C00304600F02FF804F10B00231D20F00700BC
:10342C00C21A1CBF1B1AA350AFE76268A3420CBFA1
:10343C00C8F800205A60EBE723466468AEE73C46C8
:10344C007F68B6E71A465B68A342FBD10023536042
:10345C00DEE70C233046336000F00CF894E705608F
:10346C00D6E700BFBC0400200148FFF710BF00BF27
:10347C00B40400200148FFF70BBF00BFB4040020C8
:10348C00B1F90C20F8B5160705460C4651D44B681B
:10349C00002B02DC0B6C002B49DDE66A002E46D0BB
:1034AC00002312F480522F682B6031D0626DA389F7
:1034BC00590705D56368D21A636B0BB1236CD21A0A
:1034CC0000232846E66A216AB047421CB4F90C3046
:1034DC0006D129681D2945D8274ACA40D60741D5A7
:1034EC00002262602269D904226004D5421C01D1F9
:1034FC002B6803B96065616B2F60C1B104F14403A3
:10350C00994202D02846FFF7C5FE002363630EE004
:10351C0001232846216AB0470246501CC7D12B68AC
:10352C00002BC4D01D2B01D0162B19D12F600020DD
:10353C001DE00F69002FFAD0930718BF00230E6807
:10354C0008BF4B69F61B0F608B60002EEFDD334616
:10355C003A462846216AD4F828C0E047002807DC00
:10356C00B4F90C304FF0FF3043F04003A381F8BDA9
:10357C000744361AE9E700BF0100402038B50B6953
:10358C0005460C4613B90025284638BD18B1036A08
:10359C000BB9FFF783FCB4F90C30002BF3D0626E3F
:1035AC00D00704D4990502D4A06DFFF770FE28460D
:1035BC002146FFF765FF636E0546DA07E4D4A3895D
:1035CC009B05E1D4A06DFFF763FEDDE770B50C46FB
:1035DC00B1F90E10154600291E4696B00ADAA189DB
:1035EC0011F0800113D14FF48062002031602A6009
:1035FC0016B070BD6A4600F047F80028EFDB019961
:10360C0001F47041A1F5005359425941EBE70021F7
:10361C004022EAE78B8973B59E0705460C4607D511
:10362C0004F14703236023610123636102B070BD81
:10363C0001AB6A46FFF7CAFF009E28463146FFF7EA
:10364C0093FEB4F90C3038B99A05EFD423F0030388
:10365C0043F00203A381E3E743F08003A381019BC2
:10366C00C4E904062060002BE0D02846B4F90E1003
:10367C0000F01CF80028D9D0A38923F0030343F0F1
:10368C000103A381D2E7000038B50023064D0446A0
:10369C00084611462B60FFF727FB431C02D12B6811
:1036AC0003B1236038BD00BFB004002038B500233F
:1036BC00054D044608462B60FFF725FB431C02D141
:1036CC002B6803B1236038BDB004002038B500234B
:1036DC00054D044608462B60FFF7A8FA431C02D19F
:1036EC002B6803B1236038BDB0040020F8B500BFCF
:1036FC00F8BC08BC9E467047F8B500BFF8BC08BCC7
:04370C009E4670471E
:103710000D0A3D3D3D2053433741323048202B2098
:10372000344720427269646765203D3D3D0D0000CD
:1037300034473A20706F776572206F6E2E2E2E0DF3
:103740000000000034473A202B2B2B0D0000000016
:103750002B2B2B0034473A204D5154545356310DE6
:103760000000000041542B4D5154545356313D62DA
:10377000726F6B65722E656D71782E696F2C3138A2
:1037800038330D0A0000000034473A204D5154549C
:10379000434F4E4E310D000041542B4D5154544374
:1037A0004F4E4E313D73746D33325F6C65642C2C1B
:1037B0002C36302C310D0A0034473A204D515454E8
:1037C000535542310D00000041542B4D5154545378
:1037D0005542313D4D515454585F546F70696331B7
:1037E0003134372C300D0A0034473A2041542B53E2
:1037F0000D00000041542B530D0A000034473A20BD
:1038000041540D0041540D0A0000000034473A2095
:1038100041542B49434349443F0D000041542B4937
:10382000434349443F0D0A0022636D64223A2272E9
:103830006564220022636D64223A2022726564224C
:10384000000000004C45443A205245440D00000061
:1038500022636D64223A22677265656E2200000061
:1038600022636D64223A2022677265656E22000031
:103870004C45443A20475245454E0D0022636D6445
:10388000223A22626C7565220000000022636D649A
:10389000223A2022626C7565220000004C45443AB1
:1038A00020424C55450D000022636D64223A226F80
:1038B0006666220022636D64223A20226F666622C9
:1038C000000000004C45443A204F46460D000000E1
:1038D00053433741323048206465746563746564CE
:1038E000202857484F5F414D5F493D3078253032A1
:1038F00058290D0A00000000534337413230482058
:103900006E6F7420666F756E64202869643D307830
:1039100025303258290D0A005343374132304820B0
:10392000636F6E666967757265640D000000000064
:10393000000000000102030406070809000000005F
:103940000102030402030405060708090A0B0C0D13
:083950000E0F1010010200002F
:043958003101000831
:04395C000D01000851
:1039600000127A00100000000100000000000000BA
:1039700003000000740300201C0000200000000071
:1039800074030020DC030020440400200000000039
:103990000000000000000000000000000000000027
:1039A0000000000000000000000000000000000017
:1039B0000000000000000000000000000000000007
:0839C0000000000000000000FF
:0400000508002D4181
:00000001FF
